:020000040801F1
:10010000C8230020B1020108C1020108C30201088E
:10011000C5020108C7020108C90201080000000069
:1001200000000000000000000000000001020108C3
:10013000CD0201080000000045020108C786020840
:10014000C73801082D390108CF02010865390108B7
:10015000613D0408000000008D3E0408853E04084F
:10016000773E0408E1570108FF5701082B580108A2
:100170004B580108214A0108254A0108294A01086B
:100180002D4A0108314A0108CF02010867370108EA
:10019000114B01088D2501088539010863140108F8
:1001A000091501085D3B0108EF1B0108F31B01085D
:1001B000F71B0108FB1B0108FF1B0108031C0108BA
:1001C0008B610108CF020108CF020108632E0108EC
:1001D0006F510108EF2D0108C7840108D784010879
:1001E000953B01081F16010800000000DFF80CD045
:1001F0004AF0FEFA00480047250A0108C8230020FB
:100200001E4B19680868B0E8F00F80F30988BFF347
:100210006F8F4FF0000080F311884EF00D0E704785
:100220000000000006480068006880F3088862B695
:1002300061B6BFF34F8FBFF36F8F00DF00BF00BF0A
:1002400008ED00E072B6EFF30980BFF36F8F0B4B40
:100250001A6820E9F00F106008B516F080FFBDE8BD
:10026000084019680868B0E8F00F80F30988BFF308
:100270006F8F62B6704700BF00BF00BF3409002017
:1002800072B6704762B6704772B6704762B6704712
:10029000EFF305807047000001A04AF0D3BC0000D6
:1002A0000A2075736572207461736B0A0000000088
:1002B000074880474FF0000080F31088054800474A
:1002C000FEE7FEE7FEE7FEE7FEE7FEE7FEE7FEE706
:1002D000610E0108ED010108F9487047F94B10B5AE
:1002E00003211960F74C0C34221F0A2804D111682D
:1002F0008906FCD10D21216011688906FCD1C1B2AB
:1003000021600021196010BDE8E74FF0FF30704711
:100310002DE9F0430025079CA846002904DA2D2585
:10032000494200F8015B01254FF0300921B900F87E
:10033000019B4FF0010816E091FBF2F602FB16114B
:10034000C9B2092916D9A1F10A01C9B2670701D5B5
:10035000413100E0613100F8011B08F10108310072
:100360004FFA88F8E8D1E10711D08446401EA8F181
:10037000010108E03031EEE7421A0678177800F8FC
:1003800001791670891E49B20029F5DC604649469C
:10039000202243450ADDA60701D5017000E0027066
:1003A00008F10108401C4FFA88F8F2E700214544A3
:1003B00000F80119A8F101084FFA88F1E20708D006
:1003C00009E0421A0378147800F80149891E137075
:1003D00049B20029F5DC2846BDE8F0832DE9F04359
:1003E000002304280CD0002600240868E500E8401B
:1003F000C5B2280905F00F05092831D9373030E09A
:10040000002064274FF00A084FF02E090C68C50041
:10041000EC40E5B2B5FBF7F424B104F13006D65454
:100420005B1CDBB207FB1456B6FBF8F525B105F1F2
:10043000300C02F803C002E01CB13024D4545B1C21
:10044000DBB208FB15643034D4545B1CDBB2401CB7
:1004500002F803905B1CC0B2DBB20428D6D31AE0CA
:100460003030D0545B1CD8B2092D01D9373500E0AB
:1004700030351554401CC3B2E00703D03A20D054A5
:100480005B1CDBB2641CE4B2042CAED3761C091DE9
:10049000F6B2042EA8D3D118002001F8010C581E82
:1004A0009AE72DE9F0478CB004460F464FF000095B
:1004B00059E0641C252802D0FFF710FF53E0002507
:1004C00020782E462D2801D10126641C2078302862
:1004D00002D146F00206641C6FF02F012078A0F1D3
:1004E0003002092A07D805EB850201EB42021044CD
:1004F000C5B2641CF2E7C0B22E2806D114F8010F71
:1005000030380928FAD900E0641C20786C28FBD028
:100510006828F9D0C0B264282BD010DC532867D0EB
:1005200006DC25281CD0432818D04D281AD10AE112
:10053000562877D058282FD0632813D10EE075287D
:1005400017D006DC692814D06F283ED0732809D153
:100550004EE0762867D0782804D11DE001CFC0B2E4
:10056000FFF7BCFE641C20780028A2D10CB0BDE8C7
:10057000F08702CF01A880462B460A2200960B91F5
:10058000FFF7C6FE03E008F10108FFF7A7FE98F8A1
:1005900000000028F7D1E5E702CF0B9120780DF19C
:1005A0000408582801D146F004062B461022404684
:1005B0000096FFF7ADFE03E008F10108FFF78EFE9D
:1005C00098F800000028F7D1CCE702CF01A88046B8
:1005D0002B46082200960B91FFF79AFE03E008F1E4
:1005E0000108FFF77BFE98F800000028F7D1B9E773
:1005F00057F8048B404649F02AFC844685420FD9BF
:10060000F0070DD1A5EB0C0ACDF82C9005E02020C9
:10061000FFF764FE0B98401C0B900B998A45F6D8A7
:10062000484607E059E01BE018F80000FFF756FEC7
:100630000B98401C0B906045F6D3654592D9F007A6
:1006400090D04846A5EB0C05CDF82C9005E0202075
:10065000FFF744FE0B98401C0B908542F7D881E7CA
:1006600001CF0B9001AA0BA90420FFF7B7FE80462B
:1006700085420FD9F0070DD1A5EB080C4846CDF8FF
:100680002C9005E02020FFF729FE0B98401C0B90D2
:100690008445F7D80DF1040C03E00CF1010CFFF7D1
:1006A0001DFE9CF800000028F7D145458CD9F007C5
:1006B0008AD0A5EB08054846CDF82C900AE000004A
:1006C000C8230020140801402020FFF707FE0B98E4
:1006D000401C0B908542F7D844E702CF01AA0620C0
:1006E000FFF77CFE804685420FD9F0070DD1A5EBC0
:1006F000080C4846CDF82C9005E02020FFF7EEFDD1
:100700000B98401C0B908445F7D80DF1040C03E0C6
:100710000CF1010CFFF7E2FD9CF800000028F7D176
:1007200045459CD9F0079AD0A5EB08054846CDF879
:100730002C9005E02020FFF7D1FD0B98401C0B907A
:100740008542F7D80EE701CF01A900F03DF88046B9
:1007500085420FD9F0070DD1A5EB080C4846CDF81E
:100760002C9005E02020FFF7B9FD0B98401C0B9062
:100770008445F7D80DF1040C03E00CF1010CFFF7F0
:10078000ADFD9CF800000028F7D14545A4D9F0073D
:10079000A2D0A5EB08054846CDF82C9005E0202016
:1007A000FFF79CFD0B98401C0B908542F7D8D9E6CB
:1007B0000FB410B503A90298FFF773FE10BC002018
:1007C0005DF814FB8AE5FEE770B500222D25845CF8
:1007D000230904F00F04092B01D9373300E030332B
:1007E00002EB4206092C8B5501D9373400E0303436
:1007F00002EB42030B445C7002EB42030B44521CBD
:100800009D70062AE3D302EB420000230144401E00
:1008100001F8013C70BD00002F4908432F490860D2
:10082000704770B50F24C27801784FF0E02301269D
:10083000E2B1D3F80C2D194402F4E062C2F5E06293
:10084000120AC2F10405D4404278AA4085782540B6
:1008500015432A0181F80024007800F01F018E4022
:10086000400903EB8000C0F8006170BD01F01F007B
:100870008640480903EB8000C0F8806170BD08B570
:100880008DF8000001208DF8010000208DF8020095
:100890008DF803106846FFF7C4FF08BD104A1140E9
:1008A00001431048016070474FF0E0220029D2F860
:1008B000101D01D0014300E08143C2F8101D7047B4
:1008C0004FF0E0210428086903D020F004000861FB
:1008D000704740F00400FAE70000FA050CED00E074
:1008E00080FFFF1F08ED00E00EB5684600F0A6FA95
:1008F0005E49019848435E490968B0FBF1F0B0F1E8
:10090000807F0ED220F07F414FF0E020491E4161F0
:10091000584AF02111704FF0000181614FF007013A
:1009200001614FF44070FFF777FF0EBD10B505F081
:100930002FFC30BF10BD704710B505F0BAFF042082
:1009400005F006FD052005F018FD1B2005F07BFDD8
:100950001C2005F06DFD022005F082FC0B2005F047
:100960006AFC032005F096FCBDE81040092005F064
:10097000ABBC0EB540A0D0E90010CDE900100020BE
:100980008DF80800FFF7D8FF08F057FA02F050F88A
:1009900005F053FB05F069FA06F0C1FE03F029FEED
:1009A0000BF0CFFF0CF0A6F8354803F0AEFF07229E
:1009B0001146344833F002FE684603F04FFF002230
:1009C0006946104633F044FB684633F053F823F091
:1009D000E6FA00F0B7F913F021FC15F0BBFA15F0B8
:1009E0001FFF25F055FD012202A9162006F05EFC2E
:1009F0009DF80800012807D001208DF80800024664
:100A000002A916200CF065F9FFF746FC00F058F932
:100A100001210420FFF748FF4FF08054204617F0D3
:100A20008FFAFBE71FB5002004F02CF8002004F03B
:100A300037FF002017F01AFB0121134816F0D3FFEF
:100A40000023124801224FF496518DE80F00AFF2B7
:100A5000DD021946184616F0B7FAFFF745FF17F002
:100A6000C0FB04B0002010BD7047000040420F00E2
:100A700030C5050823ED00E000250809010F00003E
:100A800030FF002000C00320040000204825002083
:100A900030B5A1B0662006F024FB04004FD028201A
:100AA00006F01FFB05004CD0012211A92C2006F0F6
:100AB000FDFB11A92046199A49F05CF9199900200B
:100AC0000122605404F121012E2006F0EFFB0122E7
:100AD00004F12201312006F0E9FB012269462F20B2
:100AE00006F0E4FB04F123049DF84000A0709DF89B
:100AF000420020709DF841006070A4F123049DF82D
:100B00004020694604F1260049F034F901221AA96F
:100B1000302006F0CBFB1B9828601C9868600022F0
:100B200005F10801142006F0C1FB2946204637F0E4
:100B3000C9FF204606F00DFB284606F00AFB21B04F
:100B400030BD2046F9E700B59FB0FF208DF86C005E
:100B500000208DF878001BA937F06EFF9DF86C001F
:100B600000282CD003282CD001221EA90A2006F030
:100B70009DFB9DF87800012803D004282FD005287C
:100B80001DD101221CA9062006F090FB012212A90A
:100B9000002006F08BFB012201A9262006F086FB2F
:100BA0009DF8700000281198C3B211D01A980093D4
:100BB000C1B201AB0DF1720212A837F0B5FE1FB041
:100BC00000BD01208DF86C001BA937F035FFF6E75A
:100BD0001A9801AAC1B212A837F034FEEFE7FFF766
:100BE00057FFECE794B000248E4D8DF83840002379
:100BF0001A460FA9286816F0D9FF0028F7D10F98D8
:100C00000068082846D2DFE800F045043232350794
:100C10002C2F00F0B3F83DE08DF80040002269462B
:100C2000142006F043FB002208A9302006F03EFB0A
:100C300023F08AFA099810900A9811900B98129054
:100C400012AA11A910A823F092FA9DF8200008B169
:100C500023F040FA9DF80000E0B1684623F041FA25
:100C600018E000F0C0F815E000F0BDF810E000F06A
:100C7000C3F80FE00EA9002037F0DEFE9DF8380023
:100C8000032805D101208DF838000EA937F0D4FED5
:100C9000FFF759FF0F9806F05CFAA8E770B5044615
:100CA0000D46082006F01DFA010008D05D48C1E994
:100CB000004500220068BDE8704016F027BF70BDF7
:100CC00000210420EAE71CB500218DF800108DF802
:100CD000041008282AD2DFE800F02904070A0D2AA8
:100CE0002D30002101202AE00021032027E00021EF
:100CF000022024E0012023F070F9012201A916202E
:100D000006F0D4FA00219DF8040037F0CFFF01224D
:100D100069460A2006F0CAFA9DF80000400705D58A
:100D200037F04FFF032801D0FFF7B2FE1CBD0021B2
:100D3000052004E00021072001E000210620FFF744
:100D4000ADFF1CBD1FB51421364816F0BDFE18B10D
:100D50004FF0FF3004B010BD0023334811224FF490
:100D600080618DE80F00AFF2831230A1184616F0B3
:100D70002BF9314823F08EF90020EBE700B58BB05A
:100D800000226946032006F091FA9DF8000070B138
:100D9000002006900790089008AA07A906A823F04B
:100DA00044F923F04AF923F01CF90BB000BD23F0FD
:100DB0001EF923F042F901980690029807900398D3
:100DC000089008AA07A906A823F02FF9049809900B
:100DD00005980A9009A9002023F02DF90AA90120FD
:100DE00023F029F9E1E710B523F081F923F077F931
:100DF000BDE8104023F0B5B900B587B000226946C0
:100E0000032006F053FA9DF8000008B123F0EFF834
:100E1000002023F0E2F823F01BF9FFF794FE07B05F
:100E200000BD00000800002008380020537973201E
:100E30005461736B00000000C70C0108F949096890
:100E40002823C1F30312B3FBF2F3036001F00F0395
:100E5000A021B1FBF3F3B1FBF2F1C0E9013170471E
:100E60000EB56846FFF7EAFFEF4900984FF4E1122C
:100E70004843B0FBF2F102FB11004B1E0001B0FB36
:100E8000F2F0EA4943EA00400860E849432010399B
:100E900008600020091D0860091D0860091D086020
:100EA000E249FF20091D08600EBD1EB504466846D4
:100EB000FFF7C4FFDC49009848437CB1242244205A
:100EC0006FF00C01012C27D0022C06D1D84B1A60F0
:100ED0001A1F1060D648083001601EBD4FF4E112A1
:100EE000B0FBF2F102FB11004B1E0001B0FBF2F06F
:100EF000CE4943EA00400860CC49432010390860DD
:100F00000020091D0860091D0860091D0860C74907
:100F1000FF20091D08601EBDC64B1A601A1F106015
:100F2000C4480830D8E7C44A002152F8213083422F
:100F300001D101207047491C1129F6D34FF0FF3031
:100F4000704718B1416A09B10069704700207047C5
:100F50003EB505460C460846FFF7E5FF002802DAD5
:100F60004FF0FF303EBD6846FFF768FFAE48009A7D
:100F700023014243B2FBF3F0411E03FB10200001AA
:100F8000B0FBF3F041EA0040696A086100202C617F
:100F90003EBD4FF0FF3228B1417529B1022908D07A
:100FA000012910D010467047406A016821F00801FD
:100FB00012E0416A0A6822F018020A60406A016879
:100FC00041F0080108E0416A0A6822F018020A604C
:100FD000406A016841F01801016000207047407DBF
:100FE000704710B54FF0FF3360B10175426A146865
:100FF00024F00304146039B1012908D002290BD070
:1010000003290ED0184610BD406A01680DE0406A01
:10101000016841F0010108E0406A016841F0020105
:1010200003E0406A016841F003010160002010BD47
:10103000007D704748B1C175406A0129016807D039
:1010400021F004010160002070474FF0FF3070472D
:1010500041F00401F6E7C07D7047002210B139B1BC
:10106000012901D001207047817D012902D1192178
:10107000406A4160104670472DE9F04105466030F6
:1010800080464026002705F04FFCD0B3686F00284B
:101090003CD0BDE8F04116F0C7BC404605F044FC2A
:1010A00008B1002414E0D8F8004011E0686AC26971
:1010B0002B6A02F03F029A4201D1012710E0A26898
:1010C000515C0162E089401CE081E86B401CE863F0
:1010D000301EA6F1010603DDE189A0898142E5D336
:1010E000E089A18988420CD3204605F013FC2146F3
:1010F00005F1680005F006FCD5F8841009B1284612
:101100008847404605F010FC3843C6D0BDE8F08162
:1011100010B50B46E0B1494C01281BD004F58C7486
:1011200019462046A361FFF798FFA07D01280ED144
:10113000002B0CD194F87000002808D0204605F050
:10114000FAFB2046FFF798FF002084F8700010BDDE
:101150003A4CE5E78C34E3E7406A016821F080010E
:1011600001607047406A016841F08001016070478A
:1011700070B50D4604004FF0FF362CD05DB32968E2
:10118000FFF7E6FE69792046FFF703FF297920463D
:10119000FFF727FFE9792046FFF74CFFA879A075F4
:1011A000A9792046FFF759FF606A8661616A0020CD
:1011B0004861616A24208860616A3F20C860606A73
:1011C000016821F0C0010160606A016841F0C0015E
:1011D0000160002070BD304670BD10B504468069C6
:1011E00001281ED1A07D01281BD12068012818D11B
:1011F00094F8700058B1002913D0002084F87000D2
:10120000204605F098FB2046BDE8104034E7002951
:1012100007D1012084F87000606A016821F0400164
:10122000016010BD1007004040420F00100801404F
:101230000C1C01400C0A0140E8B60508B03D002036
:1012400010B5044608460A2905D1626AD3699B068F
:10125000FCD10D211162626AD3699906FCD1C1B239
:101260001162DEE7406AC16911F4707F01D0006B42
:10127000704700207047002801D005F06ABF704712
:1012800070B50546002416F029FD55F8601F03E0EF
:101290008A890968224494B2A942F9D116F027FD3F
:1012A000C4F5805070BD2DE9F041074688461646CA
:1012B000182005F016FF04004FF0FF351CD0246005
:1012C0003046646005F00DFFA060B8B1324641467B
:1012D00048F050FDA6810025E581FF482061A06807
:1012E000606116F0FBFC0646214607F1600005F040
:1012F00009FB304616F0FBFC284607E7204605F0C0
:1013000028FFF9E72DE9F041054616F0E7FC07460E
:1013100005F16808002619E0404605F005FB08B114
:10132000002400E0AC6E204605F0F4FA384616F0D2
:10133000DEFCA06838B1A660216909B16069884700
:10134000204605F006FF16F0C9FC0746404605F0AA
:10135000EBFA0028E0D0384616F0C9FC0020D5E6AC
:101360002DE9F041054600F16004202616F0B6FC98
:101370000746204605F0D8FA48B1384616F0B7FCC3
:10138000686F00283FD0BDE8F04116F04DBB204605
:1013900005F0CAFA08B1002411E024680FE0686A79
:1013A000C2692B6A02F03F029A4210D0A268515CD7
:1013B0000162E089401CE081E86B401CE863301E5C
:1013C000A6F1010603DDE189A0898142E7D3E08926
:1013D000A189884212D3204605F09CFA214605F1E6
:1013E000680005F08FFA384616F081FCD5F88410B5
:1013F000002908D02846BDE8F04108473846BDE836
:10140000F04116F074BC81E610B5012828D1B34C28
:10141000207F50EA010223D0012801D101291FD0E9
:1014200059B116F05BFCAD498C39D1F8B0104A695E
:1014300022F482724A6101210DE0A07D01280FD1C2
:10144000A06901280CD116F049FC616A4A6942F48E
:1014500082724A6100212177BDE8104016F047BC36
:10146000DFE62DE9F0419D4D4FF000078C3D05F181
:101470005404686A8669866116F4F67F34D0686A17
:101480004169490730D4C069C0F3851025E0696A15
:101490000A6B16F0E00F02F0FF0804D08A6942F0F0
:1014A000E0028A6119E0D4E90121891A491EC1F3D9
:1014B0000B01022907D8A869012810D1002128684A
:1014C000FFF7A2FF0020D4E9002302F8038061683F
:1014D000491CC1F30B017F1C6160401ED7D2D5F8B7
:1014E000801009B1B8B28847B00702D02846FFF78C
:1014F000C3FDF00607D5686AC06900F4805128462C
:10150000BDE8F04169E601E62DE9F04173494FF08D
:1015100000028C3901F18C0401F1E001606A8569F7
:101520008561E80511D5606A836943F4807383613E
:1015300094F8880048B1606A836823F001038360EF
:10154000606A836843F00103836015F4F67F53D02B
:10155000606A43695B074FD4C0690023A360D1E987
:1015600001639E1B761EC0F38510C6F30B0607466B
:10157000802E17D88033C3F30B038B6012E0636AAD
:101580001A6B15F0E00FD2B204D09E6946F0E00667
:101590009E6107E0D1E900369A554B685B1CC3F3A6
:1015A0000B034B60401EEAD2032F20D12B2A1ED101
:1015B00048683A460346401E08D0012808680FD004
:1015C000184410F8021C2B2925D010E0086890F868
:1015D000FF1F2B290BD190F8FE0F06E0A26006E05A
:1015E00001782B2903D190F8FF0F2B28F6D0D4F8DF
:1015F000801009B1B8B28847A80702D02046FFF78B
:101600003BFDE8060AD5606AC06900F480512046B7
:10161000BDE8F041E1E510F8030CE6E776E52DE9D9
:10162000F0412E4D4FF000078C3D05F58C7405F50B
:10163000B675606A86698661F00511D5606A816950
:1016400041F48071816194F8880048B1606A8168D2
:1016500021F001018160606A816841F001018160CF
:1016600016F4F67F35D0606A4169490731D4C06904
:10167000C0F3851025E0616A0A6B16F0E00F02F0F6
:10168000FF0804D08A6942F0E0028A6119E0D5E9D6
:101690000121891A491EC1F30B01022907D8A0694B
:1016A000012810D100212068FFF7AEFE0020D5E907
:1016B000002302F803806968491CC1F30B017F1CF9
:1016C0006960401ED7D2D4F8801011B10FB1B8B202
:1016D0008847B00707D003E0771201083C3E00209E
:1016E0002046FFF7C9FCF00607D5606AC06900F420
:1016F00080512046BDE8F0416FE507E510B504468E
:1017000040B205F0DDF82046BDE810400121FFF7AA
:10171000B6B8F94A30B1012807D0022801D1C2F881
:101720009C117047C2F884107047C2F810117047BE
:101730000021FFF7A4B82DE9FC470E4617460546E1
:10174000FFF7B3FB4FF0FF3925B1012D09D0022D72
:1017500010D068E08C21E84848F034FBE64CE748BC
:1017600006E0E5488C218C30044648F02BFBE44829
:1017700060620CE0E3488C21044648F023FBE24819
:101780006062012F01680BD021F080710160002799
:10179000256046B131462046FFF7EAFCE8BB10E081
:1017A00041F08071F2E74FF4E130009003208DF8B2
:1017B00004008DF806708DF805708DF80770694685
:1017C000E9E70120207717201DB11820012D00D056
:1017D00029206060C0B2FFF7ABFF606D50B94FF4D5
:1017E0008058404605F07DFC06001CD0414648F07C
:1017F000E9FA66651020A765206204F16000C4E97B
:10180000177060660830A066AFF20751E0662846A0
:10181000FFF77FFF6068C0B200E004E0FFF76EFFF3
:101820000020BDE8FC874846FBE7B34A30B10128F9
:1018300007D0022801D1C2F898117047C2F8801071
:101840007047C2F80C1170472DE9F0410E004FF0BF
:10185000000406D02AB138B1012807D0022808D0E8
:1018600008E04FF0FF3051E4A34C03E0A24C8C346D
:1018700000E0A44C5434D4E90110091AC1F30B015F
:10188000914210DB81181546B1F5805F0DD92168B2
:10189000C0F5805701443A46304648F06BFAEA1BDF
:1018A000F019216804E0002030E42168014430464A
:1018B00048F060FAA0682844C0F30B00A0602846F6
:1018C00024E410B5072800D9E1B100EB40044FF043
:1018D000804000EB04108B68C0F81034CB68C0F86F
:1018E000143402B10122496800F22440C1F3160108
:1018F00042EA41018160016841F0010101604FF05D
:1019000000008EE401208CE4F0B4804F3D684FEA83
:101910004004032606FA04F62E4303FA04F4A64311
:101920003E607B4D00EB8004794E05F82430DD07E6
:1019300006EB840401D0C4E901129B0701D5C4E978
:101940000312032800D90420F0BC0D30C0B2D5E644
:1019500070B500246F4D0E46224638B1411E07294E
:1019600016D2295C090610D4044611E0A85C0006D2
:1019700001D4D4B202E0521C082AF7DB082A07D1AE
:1019800065A049F05FF9002402E063A049F05AF92C
:1019900046F08000285504EB44004FF0804101EBF5
:1019A0000010C0F82864204670BD2DE9F0475FEABA
:1019B00000080D46C3EBC3004F4900EB800086B022
:1019C00092461F4601EB80044FF0FF3910D07DB1E5
:1019D000B5F5805F0CD294F8880048B94B480830C0
:1019E000076005210220FFF7B3FF0646022803D057
:1019F000484606B0BDE8F087606A816821F00101C1
:101A0000816002233A4651463046FFF77DFFCDF80C
:101A10000880606A01272030039007EBC510019011
:101A2000F807009000200246049069463046FFF710
:101A300048FF84F88870606A816841F00101816024
:101A40003249086820F0200008600F20FFF756FE9A
:101A50000020CEE770B5002431B12AB1012806D0AC
:101A600040B1022808D008E04FF0FF3070BD224C92
:101A70008C3402E0204C00E0224C2046FFF713FC9F
:101A8000050002D12046FFF76BFC284670BDC0EB75
:101A9000C000194900EB800001EB8000C06B70476B
:101AA0002DE9F041002405460E461746012803D0D3
:101AB0002DB1022D05D005E00F4C8C3402E00E4C08
:101AC00000E0104C002104F1740015F08CFF10B1FF
:101AD0004FF0FF3011E43A4631462846FFF7BAFF8F
:101AE00018B90021606F15F08EFF606F15F086FF4A
:101AF0000020606733E40000B03D00200008014092
:101B0000000A0140C83E0020001C014000040040C3
:101B1000A44200206C0000202121217468657265B8
:101B2000206973206E6F206672656520444D4120E8
:101B30006368616E6E656C2E2121210A0000000031
:101B4000012805D030B1022807D04FF0FF30704790
:101B5000FD4804E0FC488C3801E0FB488C30FFF77E
:101B600018BA012805D030B1022807D04FF0FF3055
:101B70007047F54804E0F4488C3801E0F2488C30B6
:101B8000FFF7E6B9012805D030B1022807D04FF0A1
:101B9000FF307047EC4804E0EB488C3801E0EA483D
:101BA0008C30FFF747BAE84A0021C0EBC00000EBD9
:101BB00080008C3A02EB800080F88810084670475D
:101BC000E24A30B41168C0B200EB80031B1D01244F
:101BD0009C4021431160DE4A52F83010002904D0A5
:101BE00002EBC000406830BC084730BC70470020A2
:101BF000E6E70120E4E70220E2E70320E0E7042033
:101C0000DEE70520DCE7FEB5D24905460124087869
:101C1000224602FA04F7074203D0641CE4B2062C01
:101C2000F7D3062C38D01746A2400243C8480A70A2
:101C3000E96840F8341000EBC40029694160684647
:101C4000FFF7FCF80098C149401E091F0860081DF5
:101C50000668297A11B304EB8401491C07FA01F1E3
:101C60008E432978012920D004EB840107FA01F181
:101C70008E4304EB8401091D8F4037430760686879
:101C800018B1B249091D41F8240004F11A00C0B28C
:101C9000FFF734FD2046FEBDFF20FEBD04EB8402AD
:101CA000521C07FA02F10E43DBE704EB840207FA49
:101CB00002F10E43DDE730B5A64B012202FA00F136
:101CC0001B7819420CD0A14B196800EB8000C41C92
:101CD0001546A2401143801C05FA00F21143196019
:101CE00030BD9C4A10B50123127803FA00F111426D
:101CF0000DD096490A6800EB8000041D03FA04F435
:101D000022430A600A68801C83409A430A60F8E50F
:101D100030B50D468F49044601200978A04008429D
:101D20000BD02046FFF7DDFF1DB18848001D40F8AD
:101D300024502046BDE83040BDE730BD70B5854E2B
:101D4000012504468540307805420CD02046FFF737
:101D5000C8FF7F48002140F8341000EBC400416008
:101D60003078A843307070BDFEB506000D464FF0C8
:101D7000000414D000211A20FEF781FD7348001DD5
:101D800006606846FFF75AF800987049401E091F20
:101D900008600B1D1A68012D03D02DB106E0204606
:101DA000FEBD42F0010201E022F0010242F01E02FB
:101DB0001A601968C806FCD542F0100018601A2095
:101DC000FFF79CFCEBE7644A116830B1012807D0AB
:101DD00002280AD003280FD10CE021F003010BE008
:101DE00021F0030040F0020106E021F0030040F082
:101DF000010101E041F003011160704757484FF6BF
:101E0000FF710160416070477EB5554C05464FF447
:101E100080001646C4F80004D4F800144802FBD42D
:101E20006846FFF70BF84F49009804F20444484312
:101E30007100B0FBF1F0401E60604FF000002060C8
:101E400045F0040020604FF0FF00E060FFF7D6FF90
:101E50007EBD434A00204FF4A003401C984202D3A9
:101E60006FF002007047D2F81814C904F5D40020AE
:101E70007047072801D90120704700EB40014FF05F
:101E8000804000EB0110D0F82414C90709D0D0F825
:101E9000241441F00201C0F82414D0F82414C90716
:101EA000FBD10020704730B5024608281ED2FFF74C
:101EB000E0FF02EB42004FF0804303EB001000F51F
:101EC00082600021016041608161C161D3F8040436
:101ED0004FEA42054FF0030404FA05F440EA040017
:101EE000C3F804041B4800F16000815430BD70B594
:101EF00000244FF4FA7600EB4000310701EB0015A7
:101F000008E0012016F01CF8641CB44202D94FF01E
:101F1000FF3070BDD5F82404C007F2D170BD2DE9A3
:101F2000F04F89B04FF0000A5FEA00090F46934670
:101F30001C46CDF818A017D0FFF78BFFB8B16FF093
:101F4000020009B0BDE8F08F3C3E0020040E0140C5
:101F5000083C00200C000020040401400004004064
:101F60000000014040420F004FF0FF30E9E7FA481F
:101F70004FF480010160F84800684002FBD4BBF1D7
:101F8000000F01D0F5480460B80702D027F0030421
:101F900000E03C465FEA040853D040F6FC70B4FB16
:101FA000F0F0079015210120FFF7D2FC00260590E4
:101FB00041E0C6EB862109EB81000290E74840F63C
:101FC000FC750390AC4200D8254615B3212040EAA9
:101FD000C51001904FF00040009000200246049090
:101FE00069460598FFF76DFCDD480121C0F80C1427
:101FF000DC49C0F81C14BBF1000F00D056B1DA491F
:1020000041EA8511C0F80014FFF723FF60B16FF0BB
:10201000020A13E0A901D44A01F580711143C0F806
:10202000001401200690EFE70598FFF760FF0028F5
:10203000EDD1641B761C07988642BAD90598FFF744
:1020400032FF47452BD900210B460846A7EB080471
:1020500007E008EB000519F80520C500AA40114368
:10206000401C8442F5D8C14841614FF00001016035
:10207000BC490161A0F20C40BBF1000F02D00699EF
:1020800001B90423DA19B849A2EB080241EA821126
:10209000C0F80014FFF7DDFE08B16FF0020AAE4988
:1020A00000200860C860C86150464AE72DE9FF4F2C
:1020B00087B000270798884694461E463C460697F8
:1020C00028B1FFF7C6FE28B1F81E0BB03AE74FF073
:1020D000FF30FAE7A2494FF48000C1F80004D1F8BC
:1020E00000048B464002FAD45FEA887002D028F0E0
:1020F000030500E0454640F6FC70B5FBF0F000F04B
:10210000FF0A701EA9461F2813D800205A460CE06B
:1021100020B1810702D1C2F8207400271CF80010FA
:102120008307DB0E99400F43401CB042F0D3C2F846
:10213000207411210120FFF70BFC05908748103017
:102140000027029053E0B9F1000F1DD00798C7EBAC
:10215000872100EB810040F6FC740390A54200D873
:102160002C4684B3242040EAC41001904FF0004074
:10217000009000200246049069460598FFF7A1FBF5
:102180000221CBF80C1402E00020CBF80C047549B6
:102190005846CBF81C14BAF1000F0AD067B1574566
:1021A00012D104EB08027249A2EB090241EA821142
:1021B0000DE008EB060100E0A11989016D4A41EA32
:1021C0008661114303E014E0694941EA8411C0F8D3
:1021D0000014FFF73EFE18B16FF00200069008E011
:1021E0000598FFF784FE0028F6D12D1B7F1C57456C
:1021F000A9D90598FFF757FEC84505D9DBF8300483
:10220000079929F0030288500BF5806100200860CF
:10221000C860C861069858E757490128896881F85D
:10222000280005D0022806D148790A680021EBE58C
:10223000002004F086BB704715F0F6BB2DE9F84F7F
:10224000050088464FF0000619D0C1B10021444670
:102250006A46084604F0A4FB9DF800002146A0420F
:1022600000D80146C1F38F09214600D8014601F08C
:1022700003030022DFF8E4A0DFF8FCC02AE000201E
:10228000BDE8F88FA968F1B1DCF8080090F82800E3
:1022900010B1012812D018E028690026001B0F5C3D
:1022A00046EA0766471CCF5D46EA0746871CC01C06
:1022B000CF5D46EA07270E5C3E4306E028690844E6
:1022C000001B066801E04FF0FF36CAF80060241FCB
:1022D000521CD2B24A45D5D3FBB100210846DCF8E6
:1022E000087016E0AA681AB12E69361B925D00E0EC
:1022F000FF2297F8286016B1012E04D006E0C0F145
:102300000306F60000E0C600B2401143641E401C04
:10231000C0B29842E6D3CAF80010A8EB0400AFE7B9
:102320002DE9F84F050089464FF0000626D029B365
:1023300000224C466946104604F032FB9DF800002E
:10234000DFF818B04FEA900A00F0030C00210BF1FF
:10235000100BDFF824803DE0000401402004014020
:1023600000000140FD6D1680030028000C040140B0
:1023700003003000030038000C00002000207FE73D
:10238000DBF80000EA6812B3D8F8083093F8283078
:1023900013B1012B17D01AE02B6900BA1B1BD054C4
:1023A000D5E903373F1B7F1C020ADA55D5E903370D
:1023B0003F1B020CBF1C000EDA55D5E903231B1B83
:1023C000DB1CD05403E02B691A44121B1060241F3D
:1023D000491CC9B25145D3D3BCF1000F21D0DBF861
:1023E0000010E868D8B10020D8F8087014E097F819
:1023F000282012B1012A04D007E0C0F10302D20064
:1024000000E0C20021FA02F2D6B2D5E903231B1B79
:10241000641E401CD654C0B26045E8D301E0A4EB72
:102420000C04A9EB04002BE770B5F84DA868083040
:1024300004F07AFA08B1002401E0A868846844B185
:10244000204604F0CAFAA96808620120A06120466B
:1024500070BD002070BD70B5EC4C06460025A1682B
:10246000887960B14879FFF7AEFCA068007904F084
:1024700075FAA068006804F07FFAA0688571E44CE2
:10248000F004010C2068E34A104040EAC1012160D9
:10249000002004F063FA206840F00100206070BD65
:1024A00070B5DA4EB0688469056A002C3DD0002D05
:1024B0003BD0416A2846FFF733FF0146B068426AC5
:1024C000511A416221D1006915F09DFA284604F0A5
:1024D00021FAB068806904F080FAB168086258B9DE
:1024E000012004F03BFA0220A061204604F012FA19
:1024F000FFF79AFFB1688861B068006915F094FA37
:10250000B068056A0DB129694162B068416A284620
:10251000FFF794FE08B1FFF79EFFA069022804D1DF
:10252000D4E90410BDE87040084770BD08B5B74C49
:1025300000230422A0686946406915F037FB002893
:10254000F6D100980528F3D2DFE800F00304030376
:102550001D00EDE7A06881690029E9D1006915F047
:1025600052FAFFF761FFA1688861086915F05CFA0B
:10257000A268106A0028DBD001695162FFF75EFE95
:10258000FFF769FFD4E7FFF78BFFD1E770B5A049EC
:1025900014310C680A68E0B2824310430860081FD7
:1025A00000689A4DC0B28443E00705D0A8680422B1
:1025B0000221406915F0AAFAA00705D5A8680422EF
:1025C0000321406915F0A2FA60060ED5A86890F8BC
:1025D0002810012906D04069BDE870400422114648
:1025E00015F094BABDE870405AE770BDFEB5874E4D
:1025F00004461546B3685879A04205D11879884237
:1026000002D11868A84228D044B1012C06D0022C6F
:1026100004D0032C02D06FF00600FEBD5C710129CE
:1026200003D011B14FF0FF30FEBD19716846FEF7BF
:1026300005FCB5F57A7F05D3774900984843B5EB9B
:10264000500F02D96FF00500FEBDB068056090F82C
:102650002810022903D0012181710020FEBD2A46E5
:1026600000212046FFF7D0FBF7E72DE9F041674E48
:102670000446B06848B14FF0FF37ECB104F10800F0
:10268000054604F051F9B8B903E06FF00300BDE866
:10269000F081A06802E0016971B10068A842FAD136
:1026A000B0680021006915F0AEF9B068083004F098
:1026B0003BF918B1012502E03846E8E70025002083
:1026C000A061B0682146083004F01CF9B0680069C8
:1026D00015F0AAF9012D05D1B06804220121406945
:1026E00015F014FA0020D2E738B5044600216846F8
:1026F00015F079F910B16FF0010038BD00986061F4
:10270000464820612046FFF7B0FF050003D10021B5
:10271000009815F078F9009815F070F900206061C4
:102720002061284638BD2DE9F041164694B00700D7
:102730000C461D464FF0FF3226D02CB326B31DB3F6
:102740003249886890F82830022B18D00CA804F081
:102750003BF93021684647F035FB0EA804946946E2
:102760000297044604F0CEF8CDE9096506A9204693
:1027700004F0C8F80CA8FFF7B7FF14B087E7B5F569
:10278000FF5F01D8202C01D91046F6E78846006982
:10279000002115F038F93946214F2246384647F0D6
:1027A000E9FAE3B21E4C3A46203429462046FFF7A8
:1027B0007DFC2A462146304647F0DCFAD8F808006E
:1027C000006915F031F90020D7E7F0B58DB00500AC
:1027D0000C464FF0FF3625D0BCB10C4FB86890F8CE
:1027E0002810022920D0182107A847F0EBFACDE9DC
:1027F0000A54684604F0E8F807A902A804F082F831
:102800006846FFF771FF0DB0F0BD0BE00C00002033
:10281000000401400700788040420F00392201087F
:10282000008003203046EEE70069002115F0EBF848
:10283000042C28D8F94E4FF48000C6F80004D6F8CE
:1028400000044002FBD4E004F549000C41EAC0005A
:10285000C6F80004FFF7FDFAD6F8000440F00400C3
:10286000C6F80004D6F83024002004E0C30022FAA1
:1028700003F12954401CA042F8D30020C6F80004FC
:10288000C6F80C0413E0B4F5FF5F04D9B86800691A
:1028900015F0CAF8C6E7E34E00231A462146304633
:1028A000FFF704FC22463146284647F063FAB86831
:1028B000006915F0B9F80020A5E72DE9F0418EB0C8
:1028C00006000C464FF0FF3818D0BCB1D64FB868A0
:1028D00090F82810022913D0182107A847F072FA9F
:1028E000684609960B9404F06FF807A902A804F053
:1028F00009F86846FFF7F8FE0EB0C8E64046FBE769
:1029000000250069294615F07EF8042C29D8DFF847
:102910000CC34FF48000CCF80004DCF80004400243
:10292000FBD4002004E0315CC20091400D43401C08
:10293000A042F8D3CCF82054E004B949000C41EA95
:10294000C000CCF80004FFF784FADCF8000440F083
:102950000400CCF800040020CCF80004CCF80C04EF
:1029600013E0B4F5FF5F04D9B868006915F05CF8AE
:10297000C4E7AC4D22463146284647F0FBF9002318
:102980001A4621462846FFF7CAFAB868006915F0CA
:102990004BF80020B0E72DE9F041164694B007004F
:1029A0000C461D464FF0FF3223D014B30EB305B3CF
:1029B0009D49886890F82830022B17D00CA804F0A5
:1029C00003F83021684647F0FDF90EA804946946E3
:1029D0000297044603F096FF06A9204608960A953A
:1029E00003F090FF0CA8FFF77FFEC6E6B5F5FF5F8A
:1029F00001D91046C1E688460069002115F003F8A8
:102A00003946884F2246384647F0B4F92A463146BF
:102A1000E01947F0AFF9002361191A463846FFF76D
:102A20007EFAD8F80800006914F0FEFF0020A4E642
:102A30007FB57D4DA86818B16FF0020004B070BD7D
:102A40002C2004F04EFB04006FF0010606D001219B
:102A500004F1100014F0C7FF00BB01E03046EDE7C1
:102A6000082104F1140015F02FF818B1206914F0B2
:102A7000C5FF13E06D48002313224FF400718DE869
:102A80000F006B4A6BA10020AB6814F09DFA48B1AF
:102A9000206914F0B3FF606915F02BF8204604F0AC
:102AA00058FBDBE765482060002121716171A1714D
:102AB00004F10800A060A161E16121626162E0604F
:102AC000AC605F4C206840F480002060012003F07F
:102AD00038FF0020FFF7A0FBA8684079FFF773F9E3
:102AE000012003F03BFF206840F002002060A8684E
:102AF000006803F041FF52480C30016821F01C01CE
:102B00000160016841F4E0710160206840F48010C8
:102B10002060206840F40020206049491031086896
:102B200020F0400008601520FEF7E8FD002085E752
:102B30006FF00400704770B50E46102804D31038AB
:102B4000C5B24FF4C06401E00546002415F0C6F894
:102B500003463C48221810680121A94041EA0005BB
:102B60001560384D2D1F2C44256816B1294321606E
:102B700001E08D4325601060BDE87040184615F0F7
:102B8000B6B8F0B52F4D01240C352F1D4FF4C0639E
:102B900007F1040CA0F11002012914D0022926D05B
:102BA000D61C032950D004296BD0052979D00629D9
:102BB00032D1911F0C292FD9173902292CD910286D
:102BC00070D3D0B28AE0292826D02A2824D02D28F4
:102BD00022D0102801D3D0B200E0002359190A688E
:102BE000844022430A60D8190168A14345E01D28AA
:102BF00012D02B2810D02F280ED0102801D3D0B2FD
:102C000000E0002359190A68844022430A60D81959
:102C10000168A14350E00160F6E5000000000140BA
:102C200003003800208003200C000020543F0020C7
:102C30002D250108686F73747370690080841E000D
:102C400000040140040C01402328E5D02428E3D0EF
:102C50002728E1D20028DFD00728DDD0022EDBD9DB
:102C6000102801D3D0B200E0002359190A6884402B
:102C700022430A60D81901682143016003EB0C006C
:102C800039E00028C8D00128C6D00628C4D0022EBA
:102C9000C2D9022AC0D92328BED2102803D3D0B269
:102CA00002E00FE019E0002359190A68844022432A
:102CB0000A60D81901682143016003EB0C00016828
:102CC0002143A8E7102801D3D0B200E0002359190E
:102CD0000A688440A2430A6096E5002359190A68ED
:102CE0008440A2430A60F84818440168A143016087
:102CF000F548001D18440168A1438CE7F0B50F4664
:102D00001646102805D3A0F11001CCB24FF4C065CF
:102D100001E0044600250521FFF733FFEA480121C1
:102D200017B1012F06D00BE02844026801FA04F322
:102D30001A4304E02844026801FA04F39A4302604B
:102D4000E148001D4EB1012E01D0022E04D12844CD
:102D50000268A1408A43026056E528440268A14007
:102D60000A43F8E710B50022044611461046FFF763
:102D7000C5FF34B1012C06D10121BDE8104000206F
:102D8000D9E60021F9E710BDD0490A6822F4803263
:102D90000A60D0E9002342EA0322836842EA034240
:102DA000C36842EA03620B1F1A60D0E9042042EABA
:102DB00000200860086840F4803008607047C3490C
:102DC000091F0968C14A1268C2F3062302F00F0204
:102DD000C0E90423C1F30462C260C1F3044282600B
:102DE000C1F3052201F03F01C0E900127047B74965
:102DF000091D0868800607D520200860B4480168CE
:102E0000002901D0406808477047B14AC2E9000173
:102E10002520FEF773BC10B504462520FEF76EFC96
:102E2000D4E9000140EA0120A16840EA0140E168DC
:102E300040EA0161D4E9040240EA0220A34A40F4D6
:102E40008030106041F00040111F086010BD9F49A4
:102E5000091F086820F00040086000212520FDF7C8
:102E60000EBD9B483838C06A002800D00047704724
:102E700097493839C8622320FEF740BC10B50428B2
:102E800002D94FF0FF3010BD07D1924A106820F4EC
:102E90007F4040EA0120106009E08E4B1C3B1A681D
:102EA000C000FF248440A2438140114319600020E8
:102EB00010BD70B5042802D94FF0FF3070BD0CD1A1
:102EC000854803689BB243EA01410160016821F42F
:102ED0007F4141EA0221016018E07F4B44082C3B0E
:102EE00003EB84031D68C407E40E4FF6FF76A6408B
:102EF000B543A14029431960774B203B1968C000B6
:102F0000FF248440A14382400A431A60002070BD20
:102F1000F0B54FF0FF34042840D86F4B00F10B029E
:102F20001B1F01259540C1B1DFF8ACE10129AEF1CD
:102F3000240E15D00E224FF4C05C02EB50060CFAA2
:102F400000FC0122B240022914D047080126BE40ED
:102F5000032920D0042938D020E01868284348E00D
:102F6000E0B9186820F478401860DEF8000040F0FE
:102F7000400027E008B1022810D1186820EA0C00B0
:102F80001860DEF8000020F04000CEF80000DEF807
:102F90000000104316E018B1022801D0204633E4A7
:102FA000186820EA0C001860DEF8000020F04000ED
:102FB000CEF80000DEF800009043CEF80000DEF806
:102FC00000003043CEF8000014E0DEF8001021F0DD
:102FD0004001CEF80010042809D0DEF80000B0430C
:102FE000CEF80000DEF800009043CEF8000018682C
:102FF000A8431860002007E470B54FF0FF3604289E
:1030000036D81BD1334821B1012906D002290CD072
:103010003CE0016821F010010AE0016821F0100194
:103020000160016841F0080106E0016841F010010B
:103030000160016821F00801016027E0274C51EA96
:10304000000207D1226822F400322260226822F4B2
:10305000803222601122012302EB400503FA05F2BF
:10306000102505EB40008340012903D0022907D039
:10307000304670BD2068904320602068184304E00B
:10308000206810432060206898432060002070BDB5
:10309000042802D94FF0FF3070470AD10D4A0129A8
:1030A000106803D020F0020010600BE040F0020036
:1030B000FAE70A4B012208308240186801290FD034
:1030C0009043186000207047080C01401006004033
:1030D00044000020301801402C180140081801401D
:1030E0001043EEE7042802D94FF0FF30EBE70AD196
:1030F000F94A0129106803D020F0010010600CE0AB
:1031000040F00100FAE7F44B0122283B801C82408A
:103110001868012903D0904318600020D3E71043BA
:10312000FAE710B5042802D94FF0FF3010BD07D1DF
:10313000EA4A106820F0FF0040EA0100106009E050
:10314000E64B1C3B1A68C000FF248440A243814028
:1031500011431960002010BD78B1042802D04FF04F
:10316000FF30B0E7DC4A08320129106802D040F095
:10317000040009E020F0040006E0D84A243A0129BE
:10318000106804D040F48050106000209BE720F4C9
:103190008050F9E730B508B1022801D1032A02D9DD
:1031A0004FF0FF3030BDCD4CCC4D243C143D0129B7
:1031B00007D038B3012825D0022827D0032825D0EE
:1031C00028E0296821F4403141EA0241296030B108
:1031D000012804D002280BD0032809D01AE028685F
:1031E00020F0FF0018432860206840F4801010E0B1
:1031F000286820F47F4040EA03202860206840F4DB
:10320000001006E0206820F4801002E0206820F41E
:1032100000102860002030BD20B104280DD04FF0F0
:10322000FF3050E7AD4A243A0129106802D020F05F
:10323000007009E040F0007006E0A74A083201295A
:10324000106804D020F00100106000203BE740F03F
:103250000100F9E710B5042802D94FF0FF3010BD86
:1032600000F10B040123A3409C4C241F012902D030
:103270002068984308E0C01C01218140206832B1D9
:1032800088432060206818432060002010BD084358
:10329000F7E720B1042808D04FF0FF3013E78F493B
:1032A0002439086840F0807004E08B4908310868D0
:1032B00040F002000860002005E7884B103B04281E
:1032C00002D94FF0FF30FEE607D1186811B140F087
:1032D000100009E020F0100006E00122824018688A
:1032E00009B1104300E0904318600020EBE620B1E4
:1032F000042834D04FF0FF30E5E678481038022932
:1033000005D061B1012916D003291CD059E001680C
:1033100041F020010160016841F0400106E00168D0
:1033200041F020010160016821F040010160016865
:1033300021F0800144E0016841F040010160016832
:1033400021F02001F2E7016841F08001016001688D
:1033500021F020010160016821F0400130E05E4869
:103360000830022905D061B1012916D003291CD0EB
:1033700027E0016841F480710160016841F4007147
:1033800006E0016841F480710160016821F4007178
:103390000160016821F4806112E0016841F400716C
:1033A0000160016821F48071F2E7016841F48061F5
:1033B0000160016821F480710160016821F40071ED
:1033C000016000207FE62DE9F047C0F30724804626
:1033D0000D46164699464FF0FF3A042C10D808F0D7
:1033E000FF0739462046FFF793FD48B9032F0AD15E
:1033F000F3B22A0EC5F307412046FFF7CBFE10B10A
:103400005046BDE8F087C6F307212046FFF7F4FDDC
:10341000EAB24FEA18412046FFF74BFDC5F30721FA
:103420002046FFF72BFDC6F307412046FFF730FE8D
:10343000310E2046FFF756FE09F0FF012046FFF748
:1034400070FEC9F307212046FFF737FF0CB1042CAB
:1034500003D101212046FFF77FFE012F04D11CB9C3
:1034600001210420FFF778FE0020CAE770B50400B0
:1034700015461E4604D0042C02D04FF0FF3070BD1C
:10348000FF22FFF716FD29462046FFF7C5FE20461E
:10349000FFF7FFFE00212046FFF7AEFD1CB900211B
:1034A0002046FFF759FE01212046FFF7F1FD314686
:1034B0002046FFF71CFF002070BD042802D94FF002
:1034C000FF3000E6054A243A11681B30012383408F
:1034D000194311600020F6E5301801402C18014016
:1034E000042802D94FF0FF30EDE5FD4A11681B308A
:1034F00001238340994311600020E4E53EB5044672
:103500000D46042814D86846FDF798FCF549009844
:103510004843000AB0FBF5F085B22046FFF7E0FF14
:10352000FF2229462046FFF7C4FC2046FFF7C5FFCF
:103530003EBD042800D8A1E4C5E52DE9FE4184463E
:10354000884614461D466846FDF778FC0022FF2099
:10355000114660F307014FF00100134660F30F239B
:103560001E4660F317461046134665F3070362F3E1
:103570001F6662F30F2364F30F21DA4C009A4FF0B9
:10358000040702FB04F24FEA1224B4FBF8F267F3DB
:1035900007006CF30F2062F31F403246FFF713FF62
:1035A000BDE8FE818FE5D0490020C870CF49086092
:1035B000CE49F4310860CD49401E0831086082E5EB
:1035C0002DE9F041CA4D04460E4655F82000174635
:1035D00030B90C2003F085FD45F82400002807D001
:1035E000066055F82400476055F8241000208860D4
:1035F000BDE8F0812DE9F041BC480C380668BA4FAF
:103600000024BB4DF8784FF00108401CF87008FA10
:1036100004F0304209D055F82410486809688847FA
:1036200055F824008168491C8160641C292CEEDB5C
:10363000F878AE49401EF870002024310860D7E7C2
:103640003EB50446AB48844202D38000844200D990
:1036500004466846FDF7F2FBA2490098A64A484393
:1036600004EB8401B0FBF1F0401EC1B21160111DEA
:10367000C0F307200860C020091D08601320FEF772
:103680003DF83EBD9C494020103108600868800725
:10369000FCD418E5984A10B500201032116889074B
:1036A000FCD411684FF400730CE0401C80B29842C7
:1036B00007D992A047F0C6FAFFF7E4FF4FF0FF30BA
:1036C00010BD11680906F0D4002010BD8A4A0C32E2
:1036D0001060121D09B1902000E0102010601068E9
:1036E0008007FCD4EFE4202200B9282209B142F07F
:1036F0004002814910310A6008688007FCD47E4886
:103700000C300068C0B2DEE470B582B17A4DE8607A
:10371000774C8026A43460700020A070267362600D
:1037200023816081217090202861002070BD4FF0BE
:10373000FF3070BD30B57AB16F4DE8606C4CA43489
:1037400060700020A070207362602381608121700E
:1037500090202861002030BD4FF0FF3030BD64491B
:10376000A4310861AFE42DE9F041634C26690125DD
:103770002561B00602D565A047F064FAF0071AD0BB
:103780005B49300601F1A4014FF0060288784BD462
:10379000102620234FF0050C06280CD2DFE800F09D
:1037A000030E162427410878E0602661087B000696
:1037B00002D5022088701BE78D7019E7487840F029
:1037C0000100E060902020610320F3E748894A6807
:1037D000125CE260401C80B2488126610A899042F6
:1037E000E9D181F802C003E7042088700FE0E568A2
:1037F00048894E6868273554401C85B24D81088938
:10380000461EB54201D12761EBE7012801D02361B3
:10381000EEE627618A7008690028CCD0BDE8F04147
:10382000004740202061F5E70528C4D1087B8028A7
:10383000C1D0E0684C894B681855EBE770B5374943
:10384000416100204D07364E03460C4600E007DA82
:1038500040F27712424306EB8202C1E9005201E0D6
:103860000B604B60022807D001F10C028A600C311A
:10387000401C0328EBDB70BD8C60F8E730B52849AD
:10388000284C30390161002002460B460A6040F2A4
:103890007715454304EB8505C1E90125CA600A6136
:1038A000012807D001F118054D611831401C02288C
:1038B000ECDB30BD4B61F8E74FF0004101601A4985
:1038C0000120086012E40A4810B5B830C16811B18F
:1038D000006908308847144901201839086010BD74
:1038E0000818014040420F000C0000200CF0FFFFC0
:1038F00054410020A08601000000014077616974F6
:103900002061636B206572720A0000004932432017
:10391000414C206C6F73740D0A0000007CBD0320C5
:10392000E8AB032000A003201803004070B5F84D59
:10393000294628784C6948B90CE0A96809B1606843
:1039400088472046FFF7B8FFA4686C61206800280C
:10395000F3DA03E0A96809B160688847ED490220FD
:10396000086070BD10B5EA4C616809B1EA48884743
:10397000207818B1E74901200C310860E54908209A
:103980000860ACE7E5A047F05DB9E94901200860AF
:103990000020091D0860091D08600320091D08603A
:1039A000091D08603DE4E449E2480860E24A40F24B
:1039B0002241121D1160121DE0491160121DE049E3
:1039C0001160FF21121D1160D34A803A1060121D50
:1039D000DC4810601120121D1060121D4FF00070A5
:1039E0001060121DD8481060121DD8481060121DBA
:1039F000D7481060881C121D10600020121D106036
:103A0000121D1060121D1060121D1060101D01604B
:103A100007E400B5FFF7C7FFCF49CE480860091D8E
:103A2000CE480860CC491C3108686FF30B0000F2E7
:103A300032200860091D40F2FD20086000BD10B56D
:103A4000B34C1821204646F0BDF92046FFF7F6FE9C
:103A50002046FFF713FF0120FDF750FE0020FDF781
:103A60004DFE0320FDF74AFE1620FDF747FEB24843
:103A7000A8492438143108600120091F0860A549AD
:103A800018310860A34AB64924321160111F08603A
:103A9000A04AA149303211600102121D11609D49F6
:103AA0000C3108609B490020091D086017E70228B7
:103AB00002D0032801D1ACE767E704E49449002869
:103AC000087003D0002048608860C8600EE4904908
:103AD00048600BE48E49886008E48D49C86005E4BD
:103AE0002DE9F35F0F4600980D4628B1002F03DD46
:103AF00040F6B830874205DD9AA047F0A3F80020D1
:103B0000BDE8FC9F824E3469206800281ADA012043
:103B100014F016FAF8E74646454500DC2E463246D4
:103B2000A068009946F026F93003C4E900B079494D
:103B30002831C1F800A06469AD1BC9F81040002D00
:103B400007DC09E040F2DC58B1464FF0010A4FF0C3
:103B5000004B20680028DEDA781BD1E7874930B4B3
:103B600000200A680346012404FA00F1114205D13D
:103B7000401CC0B20F28F7D9002B09D0804A52F858
:103B80003010002904D002EBC000406830BC084768
:103B900030BC70477B4830B40368002410200125F6
:103BA000A0F1100205FA02F1194205D1401CC0B281
:103BB0002F28F5D9002CEBD0714A52F8301000298B
:103BC000E6D002EBC000406830BC0847E0E710B523
:103BD000102804D31038C0B24FF4C06100E00021B7
:103BE000664A303A0A4413680124844044EA0300D8
:103BF00010606248343808581360044201D0012034
:103C00006DE600206BE6F0B4102805D31038C0B282
:103C10004FF4C062282401E000221924574E0123EA
:103C2000143E06F1040C0CF1040505293DD2DFE831
:103C300001F0030E1E2A320097193E6803FA00F1C4
:103C40008E433E6002EB0C0637688F4320E09719E5
:103C50003E6803FA00F18E433E6002EB0C063768C3
:103C60008F43376015442E688E432E601DE09519F2
:103C70002E6803FA00F18E432E6002EB0C052E68CD
:103C80003143296011E01644376803FA00F10F430D
:103C900037601544F3E71644376803FA00F10F4321
:103CA0003760561935688D433560344908391144F9
:103CB0000A68834013430B602046F0BCFDF71EBD2D
:103CC000102804D31038C0B24FF4C06100E00021C6
:103CD0002A4A083A11440A68012383409A430A6039
:103CE00000211920FCF7CBBD102804D31038C0B236
:103CF0004FF4C06100E00021204A121F89580122C0
:103D000082400A4201D0012016E4002014E40000A1
:103D10000C42002000030040A0BE03207370692005
:103D200048532069727168616E646C650A00000016
:103D30000002004021020C00A0BD03200832200434
:103D400096024753222A0101000300080080FF0069
:103D5000080A0F01A0AD032008000040209E0320A8
:103D6000B8AB03200A6873706920747820706172A0
:103D7000616D206572726F720A000000340C0140A0
:103D8000383C002034120140102804D31038C0B24F
:103D90004FF4C06100E00021FF4A11440B6801228A
:103DA00082401A430A600AE4FC4B43F8301003EBEC
:103DB000C000426003E42DE9F04106464FF48070F4
:103DC0000F461D46834200D90546F5482C4602E0C1
:103DD00002CA02C0241F002CFAD102F00AFEF148E8
:103DE00000EB0541F04831430160C7F31301C20302
:103DF00042EA01214160002021E4F0B5E94F9E082C
:103E000003F00304002507EB03430343E648036084
:103E1000C1F31301C30343EA01214160E04802E01A
:103E200002C802C26D1CB542FADB002C07DD006837
:103E300042F8030B002002F80109641EFBD10020A8
:103E4000F0BDD948D9490160C1034160D0F80002F2
:103E5000C0B21EE42DE9FF4F4FF0000783B05FEAC8
:103E6000010B109980461D46BA46B9463E46BC46EF
:103E7000009701976FD011984FF4007218B9002D78
:103E800069D0914267D3FFF7DCFF02901C280BD06A
:103E9000C749C84BC84C85281AD0C8281FD14FF431
:103EA000807AD146022617E0C148012624380090C6
:103EB000C148DFF800C340380190BB483A214FF4B5
:103EC0007F279146ACF13D0C0160C103416006E0E3
:103ED0004FF4805791460126CDE900149C460024FA
:103EE00008E004FB09520AFB04714B466046FFF7E9
:103EF00084FF641CB442F4D3119858B1002005E04B
:103F000000EB08016A5C0BF80020401C0599884210
:103F1000F6D334E0002405E00AFB0471009802F0B7
:103F20006EFD641CB442F7D3059AC8F50070904248
:103F300000D80246002005E01BF8003000EB080125
:103F4000401C6B549042F7D34FF000084FF4807B35
:103F500013E000240CE01AE007EB04220AFB08211E
:103F60005B462A460198FFF726FF05F58075641C1D
:103F7000B4EB192FF0D308F10108B045E9D302984A
:103F80001C2804D18849042008608006486007B0D6
:103F9000BDE8F08FF0B5844CDDE9057C4CF20505F9
:103FA0002560E5036560D4F80062890141EA4211A9
:103FB00041EA031141EAC70141EA8C0106F083029C
:103FC0000A4306232360656002F083020A4342EA43
:103FD0008031C4F800124AF20101216065604CF2A0
:103FE000850121606560D4F800122360656001F0EE
:103FF000BF0141EA8010C4F800024AF2C10020600B
:104000006560F0BDF0B5684CDDE905CE4CF2050504
:104010002560E5036560D4F800624CF23507F6B21E
:1040200027606560D4F80072FFB246EA07260627CB
:1040300027606560890141EA421141EA031141EAC2
:10404000CC014BF6837241EA8E0116400E4346EADC
:104050008030C4F80002594820606560F0BD0CB59E
:10406000FFF7EFFE1C280FD0852804D0C82802D007
:104070004FF0FF300CBD00230122CDE90023114693
:104080001846FFF7BFFF07E000230122CDE9002318
:1040900011461846FFF77EFF00200CBDDFE72DE933
:1040A000F041064646480F46406A88B185688DB1A2
:1040B000D5E90301B0FBF1F0B0420DD962B15FB1B7
:1040C000B118884200D2821B0020904604460EE0C0
:1040D000032091E60B208FE601208DE62869EA6A2D
:1040E00004FB0071301990470028F2D1641C44454C
:1040F000F4D381E62DE9FC5F1546314A80460E4631
:10410000506A50B3816851B3CB68434529D945B350
:104110003EB31446C068002113F075FC606A08EBDA
:1041200005018468E068814201D9A0EB0805A06917
:104130004FF00009B8FBF0F1009108EB0501491EB2
:10414000B1FBF0F20099511A01F1010A02F0C9FF26
:104150005FEA000B07D000277BE00320D0E40B20B0
:10416000CEE40120CCE41648406AC06813F05CFC41
:104170000620C5E40098594638440190A269636A54
:10418000504398475FEA00091CD00D48406AC06858
:1041900013F04AFC5FE00000380C0140383C00207E
:1041A000002200400000FFFF002000409FC00200EE
:1041B0004408008048C000BC4290008001A001007B
:1041C0000C000020BAF1010F0CD0AFB1AAF1010030
:1041D000874223D12A463146584645F0CBFD2E442E
:1041E000002523E0A169B8FBF1F201FB128101EB8C
:1041F0000B002A463146F0E7A069B8FBF0F200FB5D
:104200001281421A01EB0B00314645F0B3FDA06963
:10421000B8FBF0F200FB1281401A05E03146584627
:10422000A26945F0A7FDA06906442D1A216B0198EB
:1042300088475FEA0009A8D12169A069B0FBF1F2C3
:10424000019859465043FFF72AFF5FEA00099CD1C5
:104250007F1C57458ED3584602F07BFFFF48406ACB
:10426000C06813F0E1FB48464AE470B500249608A4
:1042700002F00305DB0701D0F94B00E0F94B521EB9
:10428000C2F3090243EA0243F74A1360C0F3130082
:10429000D30343EA00205060F44802E004C804C19C
:1042A000641CB442FADB002D0BDD006841F8030BFF
:1042B000C5F10400002202E001F80129401E002897
:1042C000FAD1002070BD2DE9F74F0646C5B29246DF
:1042D00000244FF4805002F004FF070021D026F0A4
:1042E000FF004FF4807B814600235A463946FFF792
:1042F000BCFFC5F5807290465046524507EB05015C
:1043000038D2019845F036FD0199AAEB080008EB78
:10431000010609F580754FEA102800F0FF09DA461A
:1043200013E00620BDE8FE8F0023D44652463946EE
:104330002846FFF79AFF62463946304645F01AFD97
:1043400006F5807605F58075641C4445ECD35FEA7C
:1043500009000AD00246002339462846FFF785FFA8
:104360004A463946304645F005FD384602F0F1FE32
:104370000020D7E702460198F5E72DE9F74F82467E
:1043800000240F46601E82B05146BAF1016F00D280
:104390000846049A411C52445346009263D0049C40
:1043A000B2F1016F01D9C3F10164AC4AD16839B3EC
:1043B00020F078451069854225D224B31FB30868E0
:1043C000002113F020FB4FF4805002F08AFE5FEAD8
:1043D00000081AD04FEA1539C5F30B05C5F580560C
:1043E000B44200D826464FEA093083464FF4805243
:1043F0004146FFF768FF584602F018FB002010E026
:10440000032005B0C4E50120FBE79448C0680068BC
:1044100013F00AFB0620F4E73A5C4319401C08F845
:104420000320B042F8D300250BEB052008EB052252
:104430004FF4807102F0F2FA6D1C102DF4D3B442E7
:1044400009D03744A41B00254FF4805609F1010917
:10445000B442C8D8C6E7404602F07BFE7F48C06839
:10446000006813F0E1FA7D494869E0B14FF001635B
:1044700050469A4505D2009A18469A4201D24FF00A
:10448000FF30421C0FD0049A8969121B831841F037
:1044900000618B4200D90A1A05B03919BDE8F04F06
:1044A000C0F3130026E60020ABE70CB5FFF7C9FC0C
:1044B0001C280FD0852804D0C82802D04FF0FF3028
:1044C0000CBD0023CDE90033002211461046FFF752
:1044D00099FD07E00023CDE9003300221146104684
:1044E000FFF758FD00200CBDDFE72DE9F0415B4EE2
:1044F00005460F46706A1446E8B18168E9B1C9689B
:10450000A9421CD9DCB1D7B1C068002113F07BFAF5
:10451000706A2A198068C1688A4200D94C1B436AB4
:1045200022463946284698470446706AC06813F008
:104530007BFA204660E403205EE40B205CE401206B
:104540005AE42DE9F05F00256F1E4FF00169044623
:104550008B4616464FF0010A484500D2274604EB29
:104560000601781C884620D01546494501D9C4F17A
:1045700001653A49C86898B30B6927F078429A42B6
:1045800033D275B3BBF1000F2FD00068002113F0B8
:104590003AFA2A4659463846FFF795FE2F484FF01B
:1045A000000AC068006813F03FFA2C484169F1B175
:1045B0004C4504D24C46C84501D24FF0FF34611C33
:1045C00015D08069721BA11840F00060814200D9AB
:1045D000021B0BEB0501C4F31300BDE8F05F84E799
:1045E00000E002E00320BDE8F09F0120FBE7504619
:1045F000F9E72DE9F04F87B00024DFF874900294BA
:10460000039406941B4ED9F80000B04201D101205A
:10461000BDE44FF4007002F064FD5FEA000A0BD0C5
:10462000802002F05EFD050006D04FF0006B0DF11A
:1046300008084FF0FF3740E00020A8E4E4B301236E
:104640005A02CDE900235346802229460020FFF775
:1046500001FC2868B04236D10EE000000C000020BA
:10466000EBC000EC0BC000BC00200040002200406A
:10467000244200209FFFFFA004F0DFFB03231A4623
:10468000394604A802F0DAFA742205F10C0104A8F4
:1046900002F09AFA06A904A802F080FA686806995E
:1046A000884210D1D9F80000B0420ED080222946AD
:1046B000FF4845F05FFB08E0FFE7802229465846A7
:1046C000FFF73FFFC5E748F82470641C022CB5DBF8
:1046D000DDE902010844801C1ED00298002809DA96
:1046E000FFF7E3FE8022F2495846FFF746FEFFF748
:1046F000B6FC11E0002904DBD9F80400696888429F
:104700000AD000234FF40072CDE9002353468022E3
:10471000E7490020FFF79EFB504602F01AFD2846AD
:1047200002F017FD73E770B503460846E049092B10
:104730002FD2DFE803F02E05181A1D1F21232500B4
:104740000B7BDC070DD14C7BCD7B23438C7B2C4337
:1047500023430C7C497C23430B4302D0D4490C31C6
:1047600013E0D44911E0496900E0896901600EE075
:10477000C969FBE7096AF9E7496AF7E7896AF5E772
:10478000CB492C31542A00D3542245F0F3FA0020AF
:1047900070BD4FF0FF3070BD7FB54FF0FF35F1B306
:1047A000EAB3C34C092804F10C0655D2DFE800F047
:1047B0005405070A0D1013161900304616E0086854
:1047C000606115E00868A06112E00868E0610FE030
:1047D000086820620CE00868606209E00868A0626E
:1047E00006E0542A00D35422B1482C3045F0C2FAD6
:1047F00004F023FB03231A46294602A802F01EFAFE
:10480000AD4820607422314602A802F0DDF9211D76
:1048100002A802F0C3F9FFF748FE802200E01BE087
:10482000A3491005FFF7A9FDFFF719FC4FF4007528
:10483000284602F056FC04000BD00023CDE90053BB
:10484000034680229A490020FFF704FB204602F02D
:1048500080FC002004B070BD2846FBE7062201461C
:10486000012060E706220146012095E70422014667
:10487000022058E70422014602208DE70422014667
:10488000104650E704220146104685E704220146FF
:10489000052048E70422014605207DE70422014661
:1048A000062040E704220146062075E7042201465F
:1048B000072038E70422014607206DE770B505465A
:1048C0000C46FFF7F2FD7D484FF00402294614B173
:1048D000FFF753FD01E0FFF734FEFFF7C0FB0020B8
:1048E00070BD70B505460C46FFF7DFFD73484FF00D
:1048F0000402001D294614B1FFF73FFD01E0FFF758
:1049000020FEFFF7ACFB002070BD10B5014654221D
:104910000820FFF708FF002010BD10B50146542203
:104920000820FFF739FF002010BD7FB564A10546C0
:1049300091E80D00C96803918DE80D005D480024E1
:1049400010226946783045F0A2FA38B95949102248
:1049500078315F48FFF7F5FD040005D15549102275
:104960007831284645F006FA204673E70121FDF725
:10497000FBB94FF47A714843F8E70021FDF7F4B929
:104980004000814053480160704770B55149C0B242
:104990000968032303280BD90420440003FA04F216
:1049A0000A4203D1401CC0B20828F6D3082836D0EA
:1049B00042003F4C93400B4204F1800405D000EBD1
:1049C000800314F82350032D1FD0012393400B4282
:1049D00005D000EB800314F82350012D15D00223DD
:1049E00093400B421BD000EB800214F822100229E6
:1049F00015D10321FFF7C4FF04EB8200C168002931
:104A00000DD00069BDE8704008470321FFF7B8FFEB
:104A100004EB83004168002901D08068F2E770BD93
:104A20000020B2E70120B0E70220AEE70320ACE7A8
:104A30000420AAE770B50728049D00D901B300EB54
:104A400040064FF0804000EB06108C68C0F8184418
:104A5000CC68C0F81C4443EA0543C0F8203402B1D6
:104A60000122496800F22440C1F3100142EA4101E9
:104A70008160016841F0010101604FF0000070BDEC
:104A8000012070BD10B5144C21680128C1F3031238
:104A90006FF30B0141F0004320D002209100B1FBE5
:104AA000F0F1090241EA021101431943216010BDEE
:104AB000244200203C0000209FFFFFA0800000084F
:104AC000FFFFFFFFFFFFFFFFFFFFFFFFFFFFFFFFF6
:104AD0001010000804040040100700400420DDE727
:104AE000FF4A116838B1022808D0012809D1FD48D1
:104AF0000078022144E741F4807001E041F4007045
:104B000010607047F648001F0068C0F30D00704742
:104B100038B5F3480468F34DE0050FD5F24901209C
:104B200048700020FFF7DCFFFFF7ECFFADF8000056
:104B3000686818B16A68012168469047A00509D5E0
:104B40000220FFF7CDFFA868002803D0AA68002143
:104B50000846904738BDE348C168002903D0018A60
:104B6000C268E2481047704770B5DD4A044600202D
:104B70000D4610601420FCF7C1FD002C0DD0002163
:104B80002846FCF7E5FED74908700878BDE8704074
:104B900002230022D649FCF7B7BE70BDD14A28B126
:104BA000012805D0022800D19160704751607047FC
:104BB000D1607047CA4A00F00F01106820F4FF204E
:104BC00020F01000084310601068082940F05000E1
:104BD00005DA20F07C4040F4800040F0F84010609E
:104BE0007047BF48016821F4FF2121F010010160E6
:104BF000016841F05E0141F4806141F4800101608F
:104C00007047B74A116821F4FF2121F010011160AB
:104C1000116841F05C0110B141F4000001E021F4A1
:104C2000000020F4800040F0200040F04070106050
:104C30007047AB48016821F4FF2121F010010160A9
:104C4000016841F05D0141F4800101607047F0B5F9
:104C50000C287BD24FF6FC72914200DD1146A14B2D
:104C60001982DFF87CC200F00F00DCF8002022F08F
:104C70001002CCF800204FF08044022206E01D789C
:104C800005EB450504EB0515C5F824241D7805EB57
:104C9000450504EB0515D5F82454ED07EFD1904AEE
:104CA0001D78121F05EB450504EB0515C5F810240A
:104CB0008E4A1D7805EB450504EB0515C5F814244F
:104CC000DCF8002019270126082840D0092848D000
:104CD0000A2851D00B285AD01D7807EB800705EB26
:104CE000450504EB0515C5F8287400F10B0706FA15
:104CF00007F51543CCF80050282242EA41221978E2
:104D000001EB410104EB0111C1F82C24D4F800148B
:104D10001A7806EB420206FA02F29143C4F8001434
:104D2000197801EB410104EB0111C1F82464DCF8AE
:104D3000001041F010010143082805DA21F07C4001
:104D400040F4800040F0F841CCF80010F0BD1D7830
:104D500005EB450504EB0515C5F8287442F400651C
:104D6000C8E71D78212705EB450504EB0515C5F8B7
:104D7000287442F40055BDE71D78292705EB450549
:104D800004EB0515C5F8287442F40045B2E71D7818
:104D9000312705EB450504EB0515C5F8287442F4E9
:104DA0000035A7E74E4A116821F010011160002874
:104DB00003D04C480078FDF776B87047484B10B5E3
:104DC0001B1FC0F30D0218684A4C204040EA823095
:104DD00018601A1D106840F0800011B140F40010F6
:104DE00001E020F40010106061E630B53C4D034650
:104DF0000846296803F00F0421F4FF2121F0100177
:104E0000214329601146FFF7D9FF2868082C40F09C
:104E1000100005DA20F07C4040F4800040F0F840BB
:104E2000286030BD2E4A116810B1012805D008E075
:104E300021F4801040F4002103E021F4002040F42C
:104E40008011116070472C4A11682C4B194041EABF
:104E5000003040F00040106070470188B1F5005FFD
:104E600002D3A1F5005101E001F500510180704726
:104E700010B500210846FFF777FE0120FFF7D2FFAB
:104E8000194C00206070FFF7ACFE01F0D6FDFFF773
:104E900039FEA0800020FFF785FFA08807E67CB5DB
:104EA00000210846FFF760FE0120FFF7BBFF0E4D13
:104EB00000246C700120FFF7A4FE01F0BEFDFFF797
:104EC00021FEADF804000020FFF76CFF291D01A8AA
:104ED000FFF7C3FF6C700020FFF793FE10E00000A7
:104EE00004020140444300200C0000200080022006
:104EF000574B0108FF3F00F010070040FF0F00F084
:104F000001F09BFDFFF7FEFDADF800000020FFF76C
:104F100049FF291D6846FFF7A0FFBDF80000BDF856
:104F20000410401A00EBD0704FF4005101EB600008
:104F300080B2C0EB4010FF4901EB80007CBD38B56A
:104F400000240546ADF80040FFF792FF0021084617
:104F5000FFF70AFE0120FFF765FFF7494C7028466E
:104F6000FFF728FE01F069FDFFF7CCFDADF800006A
:104F70000020FFF717FFF0496846091DFFF76DFF96
:104F8000BDF8000038BD08B5FFF772FF00210846E4
:104F9000FFF7EAFD0120FFF745FFE74900204870D1
:104FA000FFF747FE01F049FDFFF7ACFDADF800004B
:104FB0000020FFF7F7FEE0496846091DFFF74DFFA7
:104FC000BDF8000008BD10B5FFF752FFBDE8104066
:104FD00065E770B5102804D31038C0B24FF4C06133
:104FE00000E00021D54A8B58121D8C58121D8A589A
:104FF000D24D083D4D59D14E361F8E590121814069
:1050000019420DD0214201EA020102D031B104203F
:1050100070BD09B1022070BD012070BD032070BDBC
:10502000294203D1314201D0062070BD052070BD58
:1050300070B50446C24800684FF01601C0F3011075
:105040004FEAC00505F10805BD4801F050FC08B164
:10505000012100E00221BB486C4304FB01004C43EA
:10506000B0FBF4F1B848491E026822F47F420260A6
:10507000026842EA0121016070BD70B50446B34880
:1050800040690168B24A11400160D4E9022111432C
:105090006268114301602078A94D48B101220221C4
:1050A000284601F019FC01221321284601F014FCC6
:1050B000607848B101221146284601F00DFC01221A
:1050C0001221284601F008FC2069BDE87040AFE7D6
:1050D00000B59E4A85B09A49516178B91421684655
:1050E00044F070FE102003900020029001904FF4D5
:1050F000FA50049001208DF801006846FFF7BDFFCB
:10510000242001F0DDFB2420FCF7F8FA05B0002094
:1051100000BD70B505468A480E4600684FF016017E
:10512000C0F301104FEAC00404F10804844801F000
:10513000DEFB08B1012200E0022205FB04F050432F
:1051400000EB4601680060435043B1FBF0F17E483C
:10515000491E02687F4B02EA03020260026842EACB
:1051600001210160016841F00101016070BD2DE97C
:10517000F041734F09210837384601F0B8FBA7F119
:10518000040830B10921404601F0B1FB08B9781597
:1051900038600821384601F0AAFB38B108214046A2
:1051A00001F0A5FB10B94FF4807038600721384634
:1051B00001F09DFB30B10721404601F098FB08B992
:1051C000802038600621384601F091FB40B106216D
:1051D000404601F08CFB18B94020386001F05CFCBF
:1051E0000521384601F083FB30B10521404601F02E
:1051F0007EFB08B9202038600421384601F077FB97
:1052000030B10421404601F072FB08B9102038602B
:105210000321384601F06BFB30B10321404601F019
:1052200066FB08B9082038600221384601F05FFBB0
:1052300040B30221404601F05AFB18BB04203860FD
:10524000424C6669F068E36900F00F0133B919E078
:105250007569628C43F82250521C62840800A1F1E7
:105260000101C9B2F4D1608C218C88420AD3002597
:1052700029460420E56101F004FCE16A09B1208CB3
:10528000884765840121384601F031FB30B10121A6
:10529000404601F02CFB08B9022038600021384656
:1052A00001F025FB002807D00021404601F01FFB3C
:1052B000002801D101203860BDE8F0812349C8628F
:1052C00070472249086370472DE9F04106461F48A0
:1052D0000D460021183012F086FB10B14FF0FF3060
:1052E000EAE7174F01221221384601F0F5FA144976
:1052F00040F2FF1008310860242001F0E1FA134C5D
:105300000520666225850025658501F0ADFB01213C
:10531000402001F0B6FB01221146384601F0DCFACC
:105320003846016841F0010101602946A06912F088
:105330006AFB11E00C3FECFF0C000020100C014058
:10534000001A0140006889091807004058430020EE
:10535000CFFFBFFCFF00FCFFA06912F04FFB002253
:1053600001213846A56101F0B7FA0020A4E770B525
:10537000FB4C15466062218500206085052001F008
:1053800073FB0121402001F07CFB2563F54C0122D9
:105390001221204601F0A0FA01221146204601F018
:1053A0009BFA2046016841F0010101604FF00000C6
:1053B00070BD70B5EA4C1546E06121840020608420
:1053C000052001F041FB0121042001F05AFBE562B8
:1053D000E44C01221321204601F07EFA242001F042
:1053E0006FFA01220221204601F076FA2046016878
:1053F00041F0010101604FF0000070BDF0B5D94FE0
:1054000006460D46144685B000220121384601F0BB
:1054100063FA01221221384601F05EFA042001F0FD
:1054200023FB0021402001F02CFB212040EAC41086
:10543000CC49CDE901051031C80600900020CDE926
:105440000310024669463046FCF73BFA05B0F0BD52
:105450002DE9F041C34D06460F4690460122122128
:10546000284601F039FABF4940F2FF1008310860C0
:10547000242001F025FA01221221284601F02CFAFD
:105480003D210420FCF764FA04004FF0FF3202D003
:10549000FCF7EFFC08B110460EE73A4631462046CD
:1054A000FFF7ACFF0223002241462046FCF72CFA0E
:1054B000AC4C206840F4801020604FF0010211468F
:1054C000284601F009FA206840F001002060002021
:1054D000F2E6F0B507460D4685B0164600210420D9
:1054E00001F0CFFA9F4C00220221204601F0F4F98E
:1054F0002046016821F4001101604FF001024FF0D5
:105500001301204601F0E8F9042001F09DFA002182
:10551000042001F0B6FA934869461430CDE902053B
:10552000242040EAC6100190A00500900020024609
:1055300004903846FCF7C5F988E72DE9F0410546A7
:105540000E46174639210520FCF702FA04004FF0F9
:10555000FF3202D0FCF78DFC08B11046ACE63246B3
:1055600029462046FFF7B5FF022300223946204690
:10557000FCF7CAF97B4C206840F4001020604FF023
:10558000240001F09DF901220221204601F0A4F936
:10559000206840F00100206000208DE6724910B5BF
:1055A00000200860714C0721204601F0A0F9002876
:1055B000F9D0002201216B4801F08EF96C48016896
:1055C00041F0020101604FF00400FCF76CFC6949F6
:1055D0000120887008E410B500220221614801F022
:1055E0007BF96548016841F0020101604FF0050058
:1055F000FCF759FC5F49012088704FE410B5002288
:105600000221584801F068F95A490120887045E4A0
:105610002DE9F0414FF48066304601F062FD04460A
:105620004F4810210025C0E90251012141704FF47B
:10563000FA5145600161FFF74BFD002C21D04F4A24
:1056400021460020831808C1401CFF28FAD94B4886
:10565000FA30AFF2B702C4F8FC03374631462046B1
:10566000FFF7F6FE434EB0780028FDD0B570AFF2DC
:10567000D30239462046FFF7EBFEB0780028FDD074
:10568000B57019E610B5040000D13C240B213C484C
:1056900001F02DF908B1042000E0082060434FF428
:1056A000FA41B1FBF0F03749086093E72DE9F0418A
:1056B00005460C4690460B21314801F018F90200CE
:1056C00012D0042D01D3142C31D22E4F04F110012D
:1056D0003F1D381D031D1E1D082D28D2DFE805F0D3
:1056E000090C1319151F1A21082DEED3102C1ED2E8
:1056F000EBE74246214604E012B14246214612E061
:10570000424638460FE0002AF7D042462146184666
:1057100009E012B14246214604E0424603E0424617
:10572000F5E742463046BDE8F04101F0D5B8C3E5A3
:10573000144914310860704711490A6822F0380290
:105740000A600A6842EA00020A6070470C490A6867
:1057500022F007020A600A6842EA00020A60704703
:1057600058430020001A0140101A0140081A014055
:10577000E40400400C000020140500400002CDAB02
:105780000016014004160140FC490A6822F0C002DC
:105790000A600A6842EA00020A60E0E710B5F74AC8
:1057A00004460020106060882179A37940EA010056
:1057B000617941EA030140EA010040F48050106041
:1057C0002089FFF75FFF2278EC4C0821204601F08A
:1057D00083F820460022BDE81040092101F07CB882
:1057E000E74908688007BAD5086840F002000860F9
:1057F000E44801680029B2D040680847AFE7E049B3
:105800000868C007ABD0086840F001000860DC49B8
:105810001039086820F480300860DA4808300168E0
:1058200000299CD04068084799E7D5490868400797
:1058300095D5086840F004000860D248103001682F
:1058400000298CD04068084789E7CD4908680007DF
:1058500085D5086840F008000860CA48183001681B
:10586000002901D04068084779E7C64AC2E900012B
:105870000920FBF743BFC34A0832C2E900010A20EE
:10588000FBF73CBFBF4A1032C2E900010B20FBF717
:1058900035BFBC4A1832C2E900010C20FBF72EBF0D
:1058A000B74A143A116810B141F0080001E021F044
:1058B000080040F00400106051E7B14940F4803026
:1058C000103908604BE7AE491039086820F4803081
:1058D000086044E7AA49401E0C3940F44030086093
:1058E0003DE7A7490C39086820F44030086036E7E6
:1058F00010B50B20FBF702FFA1491439086840F0EE
:105900000100086066E69E4AEC321168814311602E
:1059100025E79B4AEC321168014311601FE710B57F
:10592000994C227CB2B101002046007817D00521A5
:10593000FDF727F9207A0521FDF723F920780122C8
:105940000021FDF7DBF9207A0122BDE8104000219B
:10595000FDF7D4B9BDE810408CA045F073B961687B
:10596000C9B2FDF70EF9E068C1B2207ABDE8104077
:10597000FDF707B91F211F2800D801468C4A10687F
:1059800020F4784040EAC1201060E8E602468848EA
:10599000016821F4E02141EA02410160012217215E
:1059A00000F09ABF02468248016821F4E00141EA12
:1059B000025101600122132100F08EBF7C4A103297
:1059C00011686FF30F0101431160C8E61EB504466C
:1059D0006846FBF733FA009843F60951484304EB55
:1059E00080106100B0FBF1F0714A401E1032C1B26C
:1059F000106820F47C1040EA014010601EBD6D4824
:105A0000016821F000510160016821F080410160CE
:105A1000A5E610B5012200212D20FDF76FF9012127
:105A2000BDE810402D20FDF786B810B501220021F9
:105A30002D20FDF763F90021BDE810402D20FDF772
:105A40007AB810B5012200212720FDF757F900216F
:105A5000BDE810402720FDF76EB810B501220021E7
:105A60002720FDF74BF90121BDE810402720FDF765
:105A700062B810B54FF6FF74FFF7E3FF641EFDD266
:105A80004FF4BA70FFF79AFFBDE81040E5E710B594
:105A9000FFF7CBFF0120FFF742FF3B4C00212078AE
:105AA000FDF749F8207A0021FDF745F8FFF7C9FF17
:105AB000FFF7AFFF012218213D4800F00DFF002045
:105AC000FFF72DFF3C48FFF781FF4FF4BA70FFF757
:105AD00075FFBDE81040C0E710B5FFF7B2FF00202A
:105AE000FFF71DFF00220A21314800F0F5FE0120DA
:105AF000FFF715FF244C00212078FDF71CF8207AD1
:105B00000021FDF718F8BDE810408EE71D48403829
:105B1000C068002803D00068002111F074BF1EE6A1
:105B200018484038C068002802D0006811F07CBFD7
:105B300015E670B5134D0446403D696A49B18A685F
:105B40004AB1D0689269B0FBF2F0A04205D80120BA
:105B500070BD032070BD0B2070BDC868002111F01E
:105B600052FF686A8068016B204688470446686A6D
:105B7000C06811F059FF204670BD000000160140BA
:105B8000140600404C0000208C4300206572726FA8
:105B900072203A203738313620696F206D617020CD
:105BA0006D75737420696E69742E2E2E2E0D0A0089
:105BB000001C014010120140404B4C0070B5FF4DDD
:105BC00004464FF40040296900EB1131A14210D97D
:105BD000E86860B10068002111F015FF2103F84862
