:020000040801F1
:1001000070230020B1020108C1020108C3020108E6
:10011000C5020108C7020108C90201080000000069
:1001200000000000000000000000000001020108C3
:10013000CD020108000000004502010853820208B8
:10014000AF38010815390108CF0201084D390108FF
:100150003936040800000000B53704085D3704088C
:100160004F37040811550108315501085D55010844
:100170007D5501080B4701080F4701081347010887
:10018000174701081B470108CF0201084F37010834
:10019000D1470108752501086D3901084B14010884
:1001A000F1140108453B0108D71B0108DB1B0108BE
:1001B000DF1B0108E31B0108E71B0108EB1B01081B
:1001C00055600108CF020108CF0201084B2E01083B
:1001D0005D4E0108D72D0108038101081381010834
:1001E0007D3B01080716010800000000DFF80CD075
:1001F00049F0B2FF00480047210A0108702300209F
:100200001E4B19680868B0E8F00F80F30988BFF347
:100210006F8F4FF0000080F311884EF00D0E704785
:100220000000000006480068006880F3088862B695
:1002300061B6BFF34F8FBFF36F8F00DF00BF00BF0A
:1002400008ED00E072B6EFF30980BFF36F8F0B4B40
:100250001A6820E9F00F106008B516F046FDBDE8F9
:10026000084019680868B0E8F00F80F30988BFF308
:100270006F8F62B6704700BF00BF00BFE408002068
:1002800072B6704762B6704772B6704762B6704712
:10029000EFF305807047000001A04AF087B9000025
:1002A0000A2075736572207461736B0A0000000088
:1002B000074880474FF0000080F31088054800474A
:1002C000FEE7FEE7FEE7FEE7FEE7FEE7FEE7FEE706
:1002D000490E0108ED010108F9487047F94B10B5C6
:1002E00003211960F74C0C34221F0A2804D111682D
:1002F0008906FCD10D21216011688906FCD1C1B2AB
:1003000021600021196010BDE8E74FF0FF30704711
:100310002DE9F0430025079CA846002904DA2D2585
:10032000494200F8015B01254FF0300921B900F87E
:10033000019B4FF0010816E091FBF2F602FB16114B
:10034000C9B2092916D9A1F10A01C9B2670701D5B5
:10035000413100E0613100F8011B08F10108310072
:100360004FFA88F8E8D1E10711D08446401EA8F181
:10037000010108E03031EEE7421A0678177800F8FC
:1003800001791670891E49B20029F5DC604649469C
:10039000202243450ADDA60701D5017000E0027066
:1003A00008F10108401C4FFA88F8F2E700214544A3
:1003B00000F80119A8F101084FFA88F1E20708D006
:1003C00009E0421A0378147800F80149891E137075
:1003D00049B20029F5DC2846BDE8F0832DE9F04359
:1003E000002304280CD0002600240868E500E8401B
:1003F000C5B2280905F00F05092831D9373030E09A
:10040000002064274FF00A084FF02E090C68C50041
:10041000EC40E5B2B5FBF7F424B104F13006D65454
:100420005B1CDBB207FB1456B6FBF8F525B105F1F2
:10043000300C02F803C002E01CB13024D4545B1C21
:10044000DBB208FB15643034D4545B1CDBB2401CB7
:1004500002F803905B1CC0B2DBB20428D6D31AE0CA
:100460003030D0545B1CD8B2092D01D9373500E0AB
:1004700030351554401CC3B2E00703D03A20D054A5
:100480005B1CDBB2641CE4B2042CAED3761C091DE9
:10049000F6B2042EA8D3D118002001F8010C581E82
:1004A0009AE72DE9F0478CB004460F464FF000095B
:1004B00059E0641C252802D0FFF710FF53E0002507
:1004C00020782E462D2801D10126641C2078302862
:1004D00002D146F00206641C6FF02F012078A0F1D3
:1004E0003002092A07D805EB850201EB42021044CD
:1004F000C5B2641CF2E7C0B22E2806D114F8010F71
:1005000030380928FAD900E0641C20786C28FBD028
:100510006828F9D0C0B264282BD010DC532867D0EB
:1005200006DC25281CD0432818D04D281AD10AE112
:10053000562877D058282FD0632813D10EE075287D
:1005400017D006DC692814D06F283ED0732809D153
:100550004EE0762867D0782804D11DE001CFC0B2E4
:10056000FFF7BCFE641C20780028A2D10CB0BDE8C7
:10057000F08702CF01A880462B460A2200960B91F5
:10058000FFF7C6FE03E008F10108FFF7A7FE98F8A1
:1005900000000028F7D1E5E702CF0B9120780DF19C
:1005A0000408582801D146F004062B461022404684
:1005B0000096FFF7ADFE03E008F10108FFF78EFE9D
:1005C00098F800000028F7D1CCE702CF01A88046B8
:1005D0002B46082200960B91FFF79AFE03E008F1E4
:1005E0000108FFF77BFE98F800000028F7D1B9E773
:1005F00057F8048B404649F0DEF8844685420FD90F
:10060000F0070DD1A5EB0C0ACDF82C9005E02020C9
:10061000FFF764FE0B98401C0B900B998A45F6D8A7
:10062000484607E059E01BE018F80000FFF756FEC7
:100630000B98401C0B906045F6D3654592D9F007A6
:1006400090D04846A5EB0C05CDF82C9005E0202075
:10065000FFF744FE0B98401C0B908542F7D881E7CA
:1006600001CF0B9001AA0BA90420FFF7B7FE80462B
:1006700085420FD9F0070DD1A5EB080C4846CDF8FF
:100680002C9005E02020FFF729FE0B98401C0B90D2
:100690008445F7D80DF1040C03E00CF1010CFFF7D1
:1006A0001DFE9CF800000028F7D145458CD9F007C5
:1006B0008AD0A5EB08054846CDF82C900AE000004A
:1006C00070230020140801402020FFF707FE0B983C
:1006D000401C0B908542F7D844E702CF01AA0620C0
:1006E000FFF77CFE804685420FD9F0070DD1A5EBC0
:1006F000080C4846CDF82C9005E02020FFF7EEFDD1
:100700000B98401C0B908445F7D80DF1040C03E0C6
:100710000CF1010CFFF7E2FD9CF800000028F7D176
:1007200045459CD9F0079AD0A5EB08054846CDF879
:100730002C9005E02020FFF7D1FD0B98401C0B907A
:100740008542F7D80EE701CF01A900F03DF88046B9
:1007500085420FD9F0070DD1A5EB080C4846CDF81E
:100760002C9005E02020FFF7B9FD0B98401C0B9062
:100770008445F7D80DF1040C03E00CF1010CFFF7F0
:10078000ADFD9CF800000028F7D14545A4D9F0073D
:10079000A2D0A5EB08054846CDF82C9005E0202016
:1007A000FFF79CFD0B98401C0B908542F7D8D9E6CB
:1007B0000FB410B503A90298FFF773FE10BC002018
:1007C0005DF814FB8AE5FEE770B500222D25845CF8
:1007D000230904F00F04092B01D9373300E030332B
:1007E00002EB4206092C8B5501D9373400E0303436
:1007F00002EB42030B445C7002EB42030B44521CBD
:100800009D70062AE3D302EB420000230144401E00
:1008100001F8013C70BD00002F4908432F490860D2
:10082000704770B50F24C27801784FF0E02301269D
:10083000E2B1D3F80C2D194402F4E062C2F5E06293
:10084000120AC2F10405D4404278AA4085782540B6
:1008500015432A0181F80024007800F01F018E4022
:10086000400903EB8000C0F8006170BD01F01F007B
:100870008640480903EB8000C0F8806170BD08B570
:100880008DF8000001208DF8010000208DF8020095
:100890008DF803106846FFF7C4FF08BD104A1140E9
:1008A00001431048016070474FF0E0220029D2F860
:1008B000101D01D0014300E08143C2F8101D7047B4
:1008C0004FF0E0210428086903D020F004000861FB
:1008D000704740F00400FAE70000FA050CED00E074
:1008E00080FFFF1F08ED00E00EB5684600F09AFAA1
:1008F0005B49019848435B490968B0FBF1F0B0F1EE
:10090000807F0ED220F07F414FF0E020491E4161F0
:10091000554AF02111704FF0000181614FF007013D
:1009200001614FF44070FFF777FF0EBD10B505F081
:1009300094FB30BF10BD704710B505F01CFF0420BC
:1009400005F06BFC052005F07DFC1B2005F0D0FCBC
:100950001C2005F0C2FC1F2005F0E7FB202005F05D
:10096000CFFB212005F0FBFBBDE81040222005F065
:1009700010BC0EB53DA0D0E90010CDE9001000205C
:100980008DF80800FFF7D8FF08F048F802F044F8A7
:1009900005F0B5FA05F0B7F803F0C2FC0BF0F4FD72
:1009A0000BF0CCFE334803F02AFE072211463248F2
:1009B00033F09BFA684603F0C4FD002269461046F6
:1009C00032F0DAFF684632F0C5FC22F0F3FE00F0A8
:1009D000B0F913F0F3F915F084F815F0E7FC25F001
:1009E000DBF9012202A9162006F09EFA9DF8080004
:1009F000012807D001208DF80800024602A9162020
:100A00000BF084FFFFF748FC00F054F901210420AB
:100A1000FFF74AFF4FF08054204617F057F8FBE7E6
:100A20001FB5002003F0A3FE002017F0E5F8012118
:100A3000124816F09EFD0023114801224FF49651F2
:100A40008DE80F00AFF2D5021946184616F082F86D
:100A5000FFF74AFF17F08BF904B0002010BD704774
:100A600040420F0098BE050823ED00E0002508096C
:100A7000010F0000D8FE002000C003200400002069
:100A8000F024002030B5A1B0662006F0B2F80400D2
:100A90004FD0282006F0ADF805004CD0012211A956
:100AA0002C2006F041FA11A92046199A48F016FEAA
:100AB000199900200122605404F121012E2006F032
:100AC00033FA012204F12201312006F02DFA01222D
:100AD00069462F2006F028FA04F123049DF840000F
:100AE000A0709DF8420020709DF841006070A4F154
:100AF00023049DF84020694604F1260048F0EEFDED
:100B000001221AA9302006F00FFA1B9828601C98C1
:100B10006860002205F10801142006F005FA294654
:100B2000204637F04BFC204606F036F8284606F003
:100B300033F821B030BD2046F9E700B59FB0FF2063
:100B40008DF86C0000208DF878001BA937F0F0FBC1
:100B50009DF86C0000282CD003282CD001221EA95F
:100B60000A2006F0E1F99DF87800012803D0042856
:100B70002FD005281DD101221CA9062006F0D4F98A
:100B8000012212A9002006F0CFF9012201A9262096
:100B900006F0CAF99DF8700000281198C3B211D070
:100BA0001A980093C1B201AB0DF1720212A837F08E
:100BB0003BFB1FB000BD01208DF86C001BA937F076
:100BC000B7FBF6E71A9801AAC1B212A837F0C2FA29
:100BD000EFE7FFF757FFECE794B000248B4D8DF85B
:100BE000384000231A460FA9286816F0A5FD0028F2
:100BF000F7D10F980068082846D2DFE800F04504D6
:100C0000323235072C2F00F0B0F83DE08DF800406F
:100C100000226946142006F087F9002208A9302036
:100C200006F082F922F0A0FE099810900A9811901F
:100C30000B98129012AA11A910A822F0A8FE9DF8F4
:100C4000200008B122F07FFE9DF80000E0B1684668
:100C500022F080FE18E000F0BDF815E000F0BAF8D0
:100C600010E000F0C0F80FE00EA9002037F060FBA4
:100C70009DF83800032805D101208DF838000EA911
:100C800037F056FBFFF759FF0F9805F085FFA8E7EF
:100C900070B504460D46082005F0ABFF010008D0F2
:100CA0005A48C1E9004500220068BDE8704016F0CE
:100CB000F3BC70BD00210420EAE71CB500218DF8CB
:100CC00000108DF80410082827D2DFE800F0260471
:100CD000070A0D272A2D0021012027E000210320EB
:100CE00024E00021022021E0012201A9162006F0C3
:100CF0001BF900219DF8040037F054FC01226946DD
:100D00000A2006F011F99DF80000400705D537F0DC
:100D1000D4FB032801D0FFF7B5FE1CBD0021052040
:100D200004E00021072001E000210620FFF7B0FFCA
:100D30001CBD1FB51421354816F08CFC18B14FF0BE
:100D4000FF3004B010BD0023314811224FF4806100
:100D50008DE80F00AFF27F122EA1184615F0FAFEB3
:100D60002F4822F0D0FD0020EBE700B58BB0002229
:100D70006946032006F0D8F89DF8000070B1002005
:100D800006900790089008AA07A906A822F086FDF9
:100D900022F08CFD22F02DFD0BB000BD22F030FDC5
:100DA00022F084FD0198069002980790039808901D
:100DB00008AA07A906A822F071FD049809900598D1
:100DC0000A9009A9002022F06FFD0AA9012022F053
:100DD0006BFDE1E710B522F0C3FD22F0B9FDBDE8DF
:100DE000104022F0CEBD00B587B000226946032036
:100DF00006F09AF89DF8000008B122F001FD22F0FB
:100E000060FDFFF79AFE07B000BD0000080000205B
:100E1000B0370020537973205461736B00000000D9
:100E2000BB0C0108F94909682823C1F30312B3FB7D
:100E3000F2F3036001F00F03A021B1FBF3F3B1FB68
:100E4000F2F1C0E9013170470EB56846FFF7EAFFDD
:100E5000EF4900984FF4E1124843B0FBF2F102FB76
:100E600011004B1E0001B0FBF2F0EA4943EA0040DA
:100E70000860E8494320103908600020091D086017
:100E8000091D0860091D0860E249FF20091D08606E
:100E90000EBD1EB504466846FFF7C4FFDC49009846
:100EA00048437CB1242244206FF00C01012C27D050
:100EB000022C06D1D84B1A601A1F1060D648083091
:100EC00001601EBD4FF4E112B0FBF2F102FB110014
:100ED0004B1E0001B0FBF2F0CE4943EA004008602F
:100EE000CC494320103908600020091D0860091D05
:100EF0000860091D0860C749FF20091D08601EBD64
:100F0000C64B1A601A1F1060C4480830D8E7C44A9C
:100F1000002152F82130834201D101207047491C41
:100F20001129F6D34FF0FF30704718B1416A09B16B
:100F300000697047002070473EB505460C460846DC
:100F4000FFF7E5FF002802DA4FF0FF303EBD6846AC
:100F5000FFF768FFAE48009A23014243B2FBF3F06B
:100F6000411E03FB10200001B0FBF3F041EA0040FA
:100F7000696A086100202C613EBD4FF0FF3228B144
:100F8000417529B1022908D0012910D010467047B7
:100F9000406A016821F0080112E0416A0A6822F003
:100FA00018020A60406A016841F0080108E0416ADD
:100FB0000A6822F018020A60406A016841F01801CC
:100FC000016000207047407D704710B54FF0FF333F
:100FD00060B10175426A146824F00304146039B1E9
:100FE000012908D002290BD003290ED0184610BDC4
:100FF000406A01680DE0406A016841F0010108E0C3
:10100000406A016841F0020103E0406A016841F072
:1010100003010160002010BD007D704748B1C1751B
:10102000406A0129016807D021F004010160002015
:1010300070474FF0FF30704741F00401F6E7C07D84
:101040007047002210B139B1012901D00120704749
:10105000817D012902D11921406A41601046704703
:101060002DE9F0410546603080464026002705F016
:10107000BDFBD0B3686F00283CD0BDE8F04116F04E
:1010800099BA404605F0B2FB08B1002414E0D8F844
:10109000004011E0686AC2692B6A02F03F029A427E
:1010A00001D1012710E0A268515C0162E089401C77
:1010B000E081E86B401CE863301EA6F1010603DD09
:1010C000E189A0898142E5D3E089A18988420CD3D6
:1010D000204605F081FB214605F1680005F074FB10
:1010E000D5F8841009B128468847404605F07EFBB4
:1010F0003843C6D0BDE8F08110B50B46E0B1494C8D
:1011000001281BD004F58C7419462046A361FFF713
:1011100098FFA07D01280ED1002B0CD194F870000F
:10112000002808D0204605F068FB2046FFF798FF0E
:10113000002084F8700010BD3A4CE5E78C34E3E7FA
:10114000406A016821F0800101607047406A0168CF
:1011500041F080010160704770B50D4604004FF00A
:10116000FF362CD05DB32968FFF7E6FE697920468B
:10117000FFF703FF29792046FFF727FFE97920468B
:10118000FFF74CFFA879A075A9792046FFF759FF12
:10119000606A8661616A00204861616A2420886013
:1011A000616A3F20C860606A016821F0C001016087
:1011B000606A016841F0C0010160002070BD3046E6
:1011C00070BD10B50446806901281ED1A07D01289C
:1011D0001BD12068012818D194F8700058B100295B
:1011E00013D0002084F87000204605F006FB20464E
:1011F000BDE8104034E7002907D1012084F87000D1
:10120000606A016821F04001016010BD10070040D4
:1012100040420F00100801400C1C01400C0A014024
:1012200050B00508583D002010B5044608460A296C
:1012300005D1626AD3699B06FCD10D211162626AF5
:10124000D3699906FCD1C1B21162DEE7406AC16977
:1012500011F4707F01D0006B7047002070470028A8
:1012600001D005F099BC704770B50546002416F012
:10127000FBFA55F8601F03E08A890968224494B29A
:10128000A942F9D116F0F9FAC4F5805070BD2DE9E4
:10129000F041074688461646182005F0AAFC0400CF
:1012A0004FF0FF351CD024603046646005F0A1FC8F
:1012B000A060B8B13246414648F010FAA681002538
:1012C000E581FF482061A068606116F0CDFA06460E
:1012D000214607F1600005F077FA304616F0CDFAA6
:1012E000284607E7204605F057FCF9E72DE9F041CD
:1012F000054616F0B9FA074605F16808002619E018
:10130000404605F073FA08B1002400E0AC6E2046B8
:1013100005F062FA384616F0B0FAA06838B1A66057
:10132000216909B160698847204605F035FC16F04F
:101330009BFA0746404605F059FA0028E0D03846A7
:1013400016F09BFA0020D5E62DE9F041054600F1A4
:101350006004202616F088FA0746204605F046FA73
:1013600048B1384616F089FA686F00283FD0BDE8CA
:10137000F04116F01FB9204605F038FA08B10024F4
:1013800011E024680FE0686AC2692B6A02F03F022C
:101390009A4210D0A268515C0162E089401CE08151
:1013A000E86B401CE863301EA6F1010603DDE1890D
:1013B000A0898142E7D3E089A189884212D32046DF
:1013C00005F00AFA214605F1680005F0FDF93846F6
:1013D00016F053FAD5F88410002908D02846BDE845
:1013E000F04108473846BDE8F04116F046BA81E6BC
:1013F00010B5012828D1B34C207F50EA010223D038
:10140000012801D101291FD059B116F02DFAAD499B
:101410008C39D1F8B0104A6922F482724A610121F4
:101420000DE0A07D01280FD1A06901280CD116F094
:101430001BFA616A4A6942F482724A61002121778B
:10144000BDE8104016F019BADFE62DE9F0419D4DD8
:101450004FF000078C3D05F15404686A8669866187
:1014600016F4F67F34D0686A4169490730D4C06900
:10147000C0F3851025E0696A0A6B16F0E00F02F0F0
:10148000FF0804D08A6942F0E0028A6119E0D4E9D9
:101490000121891A491EC1F30B01022907D8A86945
:1014A000012810D100212868FFF7A2FF0020D4E90D
:1014B000002302F803806168491CC1F30B017F1C03
:1014C0006160401ED7D2D5F8801009B1B8B2884704
:1014D000B00702D02846FFF7C3FDF00607D5686ABB
:1014E000C06900F480512846BDE8F04169E601E694
:1014F0002DE9F04173494FF000028C3901F18C0461
:1015000001F1E001606A85698561E80511D5606ACD
:10151000836943F48073836194F8880048B1606AFA
:10152000836823F001038360606A836843F00103EA
:10153000836015F4F67F53D0606A43695B074FD42C
:10154000C0690023A360D1E901639E1B761EC0F32E
:101550008510C6F30B060746802E17D88033C3F3D9
:101560000B038B6012E0636A1A6B15F0E00FD2B2C6
:1015700004D09E6946F0E0069E6107E0D1E900369E
:101580009A554B685B1CC3F30B034B60401EEAD2B9
:10159000032F20D12B2A1ED148683A460346401E0D
:1015A00008D0012808680FD0184410F8021C2B2915
:1015B00025D010E0086890F8FF1F2B290BD190F878
:1015C000FE0F06E0A26006E001782B2903D190F817
:1015D000FF0F2B28F6D0D4F8801009B1B8B2884795
:1015E000A80702D02046FFF73BFDE8060AD5606A4F
:1015F000C06900F480512046BDE8F041E1E510F8F3
:10160000030CE6E776E52DE9F0412E4D4FF000079B
:101610008C3D05F58C7405F5B675606A8669866142
:10162000F00511D5606A816941F48071816194F897
:10163000880048B1606A816821F001018160606AB8
:10164000816841F00101816016F4F67F35D0606A4F
:101650004169490731D4C069C0F3851025E0616A4A
:101660000A6B16F0E00F02F0FF0804D08A6942F01E
:10167000E0028A6119E0D5E90121891A491EC1F306
:101680000B01022907D8A069012810D10021206888
:10169000FFF7AEFE0020D5E9002302F80380696859
:1016A000491CC1F30B017F1C6960401ED7D2D4F8DE
:1016B000801011B10FB1B8B28847B00707D003E06E
:1016C0005F120108E43D00202046FFF7C9FCF00648
:1016D00007D5606AC06900F480512046BDE8F0413A
:1016E0006FE507E510B5044640B205F04BF820461B
:1016F000BDE810400121FFF7C2B8F94A30B1012816
:1017000007D0022801D1C2F89C117047C2F884109A
:101710007047C2F8101170470021FFF7B0B82DE9EB
:10172000FC470E4617460546FFF7B3FB4FF0FF395F
:1017300025B1012D09D0022D10D068E08C21E84898
:1017400047F0F4FFE64CE74806E0E5488C218C3092
:10175000044647F0EBFFE44860620CE0E3488C216C
:10176000044647F0E3FFE2486062012F01680BD0B6
:1017700021F0807101600027256046B13146204686
:10178000FFF7EAFCE8BB10E041F08071F2E74FF4AC
:10179000E130009003208DF804008DF806708DF87C
:1017A00005708DF807706946E9E70120207717205A
:1017B0001DB11820012D00D029206060C0B2FFF7B4
:1017C000ABFF606D50B94FF48058404605F011FAF8
:1017D00006001CD0414647F0A9FF66651020A765AA
:1017E000206204F16000C4E9177060660830A066EA
:1017F000AFF20751E0662846FFF77FFF6068C0B28E
:1018000000E004E0FFF76EFF0020BDE8FC874846DB
:10181000FBE7B34A30B1012807D0022801D1C2F852
:1018200098117047C2F880107047C2F80C117047C9
:101830002DE9F0410E004FF0000406D02AB138B176
:10184000012807D0022808D008E04FF0FF3051E40B
:10185000A34C03E0A24C8C3400E0A44C5434D4E9F3
:101860000110091AC1F30B01914210DB81181546D2
:10187000B1F5805F0DD92168C0F5805701443A4623
:10188000304647F02BFFEA1BF019216804E00020E6
:1018900030E421680144304647F020FFA068284426
:1018A000C0F30B00A060284624E410B5072800D937
:1018B000E1B100EB40044FF0804000EB04108B6876
:1018C000C0F81034CB68C0F8143402B10122496862
:1018D00000F22440C1F3160142EA4101816001682F
:1018E00041F0010101604FF000008EE401208CE422
:1018F000F0B4804F3D684FEA4004032606FA04F630
:101900002E4303FA04F4A6433E607B4D00EB8004B3
:10191000794E05F82430DD0706EB840401D0C4E9D4
:1019200001129B0701D5C4E90312032800D9042042
:10193000F0BC0D30C0B2D5E670B500246F4D0E4638
:10194000224638B1411E072916D2295C090610D457
:10195000044611E0A85C000601D4D4B202E0521C97
:10196000082AF7DB082A07D165A048F01FFE0024EB
:1019700002E063A048F01AFE46F08000285504EB10
:1019800044004FF0804101EB0010C0F8286420466D
:1019900070BD2DE9F0475FEA00080D46C3EBC300B8
:1019A0004F4900EB800086B092461F4601EB800451
:1019B0004FF0FF3910D07DB1B5F5805F0CD294F8AF
:1019C000880048B94B480830076005210220FFF71E
:1019D000B3FF0646022803D0484606B0BDE8F087AC
:1019E000606A816821F00101816002233A46514614
:1019F0003046FFF77DFFCDF80880606A0127203070
:101A0000039007EBC5100190F807009000200246F4
:101A1000049069463046FFF748FF84F88870606A92
:101A2000816841F0010181603249086820F020009E
:101A300008600F20FFF756FE0020CEE770B50024A7
:101A400031B12AB1012806D040B1022808D008E0FF
:101A50004FF0FF3070BD224C8C3402E0204C00E08F
:101A6000224C2046FFF713FC050002D12046FFF769
:101A70006BFC284670BDC0EBC000194900EB80002C
:101A800001EB8000C06B70472DE9F0410024054652
:101A90000E461746012803D02DB1022D05D005E0D2
:101AA0000F4C8C3402E00E4C00E0104C002104F18D
:101AB000740015F05EFD10B14FF0FF3011E43A46AE
:101AC00031462846FFF7BAFF18B90021606F15F0BC
:101AD00060FD606F15F058FD0020606733E4000082
:101AE000583D002000080140000A0140703E0020DF
:101AF000001C0140000400404C4200205C0000201B
:101B00002121217468657265206973206E6F2066DB
:101B100072656520444D41206368616E6E656C2E70
:101B20002121210A00000000012805D030B102283F
:101B300007D04FF0FF307047FD4804E0FC488C3878
:101B400001E0FB488C30FFF718BA012805D030B10E
:101B5000022807D04FF0FF307047F54804E0F44802
:101B60008C3801E0F2488C30FFF7E6B9012805D047
:101B700030B1022807D04FF0FF307047EC4804E046
:101B8000EB488C3801E0EA488C30FFF747BAE84A66
:101B90000021C0EBC00000EB80008C3A02EB80001B
:101BA00080F8881008467047E24A30B41168C0B225
:101BB00000EB80031B1D01249C4021431160DE4A81
:101BC00052F83010002904D002EBC000406830BC4D
:101BD000084730BC70470020E6E70120E4E7022018
:101BE000E2E70320E0E70420DEE70520DCE7FEB5BE
:101BF000D249054601240878224602FA04F7074232
:101C000003D0641CE4B2062CF7D3062C38D0174658
:101C1000A2400243C8480A70E96840F8341000EB5B
:101C2000C400296941606846FFF7FCF80098C14983
:101C3000401E091F0860081D0668297A11B304EBCD
:101C40008401491C07FA01F18E432978012920D02B
:101C500004EB840107FA01F18E4304EB8401091DB2
:101C60008F4037430760686818B1B249091D41F8D1
:101C7000240004F11A00C0B2FFF734FD2046FEBD77
:101C8000FF20FEBD04EB8402521C07FA02F10E4352
:101C9000DBE704EB840207FA02F10E43DDE730B51F
:101CA000A64B012202FA00F11B7819420CD0A14B7D
:101CB000196800EB8000C41C1546A2401143801C2B
:101CC00005FA00F21143196030BD9C4A10B501239A
:101CD000127803FA00F111420DD096490A6800EB20
:101CE0008000041D03FA04F422430A600A68801C81
:101CF00083409A430A60F8E530B50D468F490446A3
:101D000001200978A04008420BD02046FFF7DDFFF4
:101D10001DB18848001D40F824502046BDE83040E1
:101D2000BDE730BD70B5854E01250446854030784D
:101D300005420CD02046FFF7C8FF7F48002140F83D
:101D4000341000EBC40041603078A843307070BD9F
:101D5000FEB506000D464FF0000414D000211A20F5
:101D6000FEF78DFD7348001D06606846FFF75AF8C0
:101D700000987049401E091F08600B1D1A68012D4C
:101D800003D02DB106E02046FEBD42F0010201E085
:101D900022F0010242F01E021A601968C806FCD542
:101DA00042F0100018601A20FFF79CFCEBE7644A31
:101DB000116830B1012807D002280AD003280FD1BA
:101DC0000CE021F003010BE021F0030040F00201E0
:101DD00006E021F0030040F0010101E041F00301C1
:101DE0001160704757484FF6FF71016041607047BE
:101DF0007EB5554C05464FF480001646C4F80004E5
:101E0000D4F800144802FBD46846FFF70BF84F499A
:101E1000009804F2044448437100B0FBF1F0401E06
:101E200060604FF00000206045F0040020604FF03B
:101E3000FF00E060FFF7D6FF7EBD434A00204FF46D
:101E4000A003401C984202D36FF002007047D2F802
:101E50001814C904F5D400207047072801D90120BF
:101E6000704700EB40014FF0804000EB0110D0F8CC
:101E70002414C90709D0D0F8241441F00201C0F895
:101E80002414D0F82414C907FBD10020704730B5C2
:101E9000024608281ED2FFF7E0FF02EB42004FF097
:101EA000804303EB001000F5826000210160416077
:101EB0008161C161D3F804044FEA42054FF0030485
:101EC00004FA05F440EA0400C3F804041B4800F1D6
:101ED0005000815430BD70B500244FF4FA7600EB09
:101EE0004000310701EB001508E0012015F0EEFD80
:101EF000641CB44202D94FF0FF3070BDD5F8240401
:101F0000C007F2D170BD2DE9F04F89B04FF0000A43
:101F10005FEA00090F4693461C46CDF818A017D07B
:101F2000FFF78BFFB8B16FF0020009B0BDE8F08F8A
:101F3000E43D0020040E0140B03B00200C000020D6
:101F400004040140000400400000014040420F0032
:101F50004FF0FF30E9E7FA484FF480010160F8489C
:101F600000684002FBD4BBF1000F01D0F5480460CB
:101F7000B80702D027F0030400E03C465FEA0408FB
:101F800053D040F6FC70B4FBF0F00790152101200F
:101F9000FFF7D2FC0026059041E0C6EB862109EB55
:101FA00081000290E74840F6FC750390AC4200D8EF
:101FB000254615B3212040EAC51001904FF000409E
:101FC000009000200246049069460598FFF76DFCDA
:101FD000DD480121C0F80C14DC49C0F81C14BBF129
:101FE000000F00D056B1DA4941EA8511C0F800145B
:101FF000FFF723FF60B16FF0020A13E0A901D44A92
:1020000001F580711143C0F8001401200690EFE73C
:102010000598FFF760FF0028EDD1641B761C079838
:102020008642BAD90598FFF732FF47452BD90021E0
:102030000B460846A7EB080407E008EB000519F873
:102040000520C500AA401143401C8442F5D8C14870
:1020500041614FF000010160BC490161A0F20C40F8
:10206000BBF1000F02D0069901B90423DA19B8496F
:10207000A2EB080241EA8211C0F80014FFF7DDFE6E
:1020800008B16FF0020AAE4900200860C860C8615C
:1020900050464AE72DE9FF4F87B00027079888464A
:1020A00094461E463C46069728B1FFF7C6FE28B167
:1020B000F81E0BB03AE74FF0FF30FAE7A2494FF4B1
:1020C0008000C1F80004D1F800048B464002FAD425
:1020D0005FEA887002D028F0030500E0454640F62C
:1020E000FC70B5FBF0F000F0FF0A701EA9461F2837
:1020F00013D800205A460CE020B1810702D1C2F863
:10210000207400271CF800108307DB0E99400F4352
:10211000401CB042F0D3C2F8207411210120FFF717
:102120000BFC0590874810300027029053E0B9F16E
:10213000000F1DD00798C7EB872100EB810040F608
:10214000FC740390A54200D82C4684B3242040EAB6
:10215000C41001904FF0004000900020024604900F
:1021600069460598FFF7A1FB0221CBF80C1402E0A9
:102170000020CBF80C0475495846CBF81C14BAF172
:10218000000F0AD067B1574512D104EB080272491B
:10219000A2EB090241EA82110DE008EB060100E022
:1021A000A11989016D4A41EA8661114303E014E0F7
:1021B000694941EA8411C0F80014FFF73EFE18B1E6
:1021C0006FF00200069008E00598FFF784FE0028F3
:1021D000F6D12D1B7F1C5745A9D90598FFF757FE4F
:1021E000C84505D9DBF83004079929F00302885067
:1021F0000BF5806100200860C860C861069858E748
:1022000057490128896881F8280005D0022806D19D
:1022100048790A680021EBE5002004F0F4BA704721
:1022200015F0C8B92DE9F84F050088464FF00006B3
:1022300019D0C1B1002144466A46084604F012FB99
:102240009DF800002146A04200D80146C1F38F0945
:10225000214600D8014601F003030022DFF8E4A084
:10226000DFF8FCC02AE00020BDE8F88FA968F1B1D2
:10227000DCF8080090F8280010B1012812D018E00E
:1022800028690026001B0F5C46EA0766471CCF5DE5
:1022900046EA0746871CC01CCF5D46EA07270E5C4E
:1022A0003E4306E028690844001B066801E04FF041
:1022B000FF36CAF80060241F521CD2B24A45D5D35B
:1022C000FBB100210846DCF8087016E0AA681AB1D4
:1022D0002E69361B925D00E0FF2297F8286016B148
:1022E000012E04D006E0C0F10306F60000E0C600AF
:1022F000B2401143641E401CC0B29842E6D3CAF8F3
:102300000010A8EB0400AFE72DE9F84F050089465F
:102310004FF0000626D029B300224C4669461046ED
:1023200004F0A0FA9DF80000DFF818B04FEA900A18
:1023300000F0030C00210BF1100BDFF824803DE0CE
:10234000000401402004014000000140FD6D1680A2
:10235000030028000C040140030030000300380093
:102360000C00002000207FE7DBF80000EA6812B3D1
:10237000D8F8083093F8283013B1012B17D01AE0A1
:102380002B6900BA1B1BD054D5E903373F1B7F1CB8
:10239000020ADA55D5E903373F1B020CBF1C000EB9
:1023A000DA55D5E903231B1BDB1CD05403E02B6952
:1023B0001A44121B1060241F491CC9B25145D3D3C3
:1023C000BCF1000F21D0DBF80010E868D8B1002084
:1023D000D8F8087014E097F8282012B1012A04D028
:1023E00007E0C0F10302D20000E0C20021FA02F2CD
:1023F000D6B2D5E903231B1B641E401CD654C0B2C1
:102400006045E8D301E0A4EB0C04A9EB04002BE742
:1024100070B5F84DA868083004F0E8F908B1002458
:1024200001E0A868846844B1204604F038FAA9683D
:1024300008620120A061204670BD002070BD70B50B
:10244000EC4C06460025A168887960B14879FFF711
:10245000AEFCA068007904F0E3F9A068006804F01D
:10246000EDF9A0688571E44CF004010C2068E34AA2
:10247000104040EAC1012160002004F0D1F9206839
:1024800040F00100206070BD70B5DA4EB06884691C
:10249000056A002C3DD0002D3BD0416A2846FFF74D
:1024A00033FF0146B068426A511A416221D1006986
:1024B00015F06FF8284604F08FF9B068806904F0D1
:1024C000EEF9B168086258B9012004F0A9F90220B8
:1024D000A061204604F080F9FFF79AFFB168886197
:1024E000B068006915F066F8B068056A0DB1296931
:1024F0004162B068416A2846FFF794FE08B1FFF7D1
:102500009EFFA069022804D1D4E90410BDE8704000
:10251000084770BD08B5B74C00230422A06869467F
:10252000406915F009F90028F6D100980528F3D282
:10253000DFE800F0030403031D00EDE7A0688169F4
:102540000029E9D1006915F024F8FFF761FFA168BF
:102550008861086915F02EF8A268106A0028DBD09F
:1025600001695162FFF75EFEFFF769FFD4E7FFF7ED
:102570008BFFD1E770B5A04914310C680A68E0B24E
:10258000824310430860081F00689A4DC0B284431C
:10259000E00705D0A86804220221406915F07CF804
:1025A000A00705D5A86804220321406915F074F836
:1025B00060060ED5A86890F82810012906D0406959
:1025C000BDE870400422114615F066B8BDE87040C1
:1025D0005AE770BDFEB5874E04461546B368587974
:1025E000A04205D11879884202D11868A84228D0A3
:1025F00044B1012C06D0022C04D0032C02D06FF081
:102600000600FEBD5C71012903D011B14FF0FF300F
:10261000FEBD19716846FEF705FCB5F57A7F05D356
:10262000774900984843B5EB500F02D96FF0050089
:10263000FEBDB068056090F82810022903D0012182
:1026400081710020FEBD2A4600212046FFF7D0FB05
:10265000F7E72DE9F041674E0446B06848B14FF006
:10266000FF37ECB104F10800054604F0BFF8B8B933
:1026700003E06FF00300BDE8F081A06802E00169AB
:1026800071B10068A842FAD1B0680021006914F065
:1026900080FFB068083004F0A9F818B1012502E005
:1026A0003846E8E700250020A061B06821460830E0
:1026B00004F08AF8B068006914F07CFF012D05D1A0
:1026C000B06804220121406914F0E6FF0020D2E73F
:1026D00038B504460021684614F04BFF10B16FF086
:1026E000010038BD00986061464820612046FFF730
:1026F000B0FF050003D10021009814F04AFF0098B4
:1027000014F042FF002060612061284638BD2DE9A9
:10271000F041164694B007000C461D464FF0FF32BC
:1027200026D02CB326B31DB33249886890F82830E0
:10273000022B18D00CA804F0A9F83021684646F006
:10274000F5FF0EA8049469460297044604F03CF88D
:10275000CDE9096506A9204604F036F80CA8FFF774
:10276000B7FF14B087E7B5F5FF5F01D8202C01D97A
:102770001046F6E788460069002114F00AFF394642
:10278000214F2246384646F0A9FFE3B21E4C3A4696
:10279000203429462046FFF77DFC2A462146304654
:1027A00046F09CFFD8F80800006914F003FF0020F1
:1027B000D7E7F0B58DB005000C464FF0FF3625D0B9
:1027C000BCB10C4FB86890F82810022920D018210D
:1027D00007A846F0ABFFCDE90A54684604F056F866
:1027E00007A902A803F0F0FF6846FFF771FF0DB0DC
:1027F000F0BD0BE00C0000200004014007007880D1
:1028000040420F0021220108008003203046EEE7FD
:102810000069002114F0BDFE042C28D8F94E4FF4B5
:102820008000C6F80004D6F800044002FBD4E0049F
:10283000F549000C41EAC000C6F80004FFF7FDFAB4
:10284000D6F8000440F00400C6F80004D6F830249E
:10285000002004E0C30022FA03F12954401CA042E6
:10286000F8D30020C6F80004C6F80C0413E0B4F551
:10287000FF5F04D9B868006914F09CFEC6E7E34E18
:1028800000231A4621463046FFF704FC2246314613
:10289000284646F023FFB868006914F08BFE00203C
:1028A000A5E72DE9F0418EB006000C464FF0FF3849
:1028B00018D0BCB1D64FB86890F82810022913D0B0
:1028C000182107A846F032FF684609960B9403F0DA
:1028D000DDFF07A902A803F077FF6846FFF7F8FEBF
:1028E0000EB0C8E64046FBE700250069294614F013
:1028F00050FE042C29D8DFF80CC34FF48000CCF82C
:102900000004DCF800044002FBD4002004E0315C49
:10291000C20091400D43401CA042F8D3CCF8205493
:10292000E004B949000C41EAC000CCF80004FFF70C
:1029300084FADCF8000440F00400CCF80004002025
:10294000CCF80004CCF80C0413E0B4F5FF5F04D914
:10295000B868006914F02EFEC4E7AC4D224631463B
:10296000284646F0BBFE00231A4621462846FFF7BC
:10297000CAFAB868006914F01DFE0020B0E72DE91E
:10298000F041164694B007000C461D464FF0FF324A
:1029900023D014B30EB305B39D49886890F828304E
:1029A000022B17D00CA803F071FF3021684646F0C7
:1029B000BDFE0EA8049469460297044603F004FF86
:1029C00006A9204608960A9503F0FEFE0CA8FFF71C
:1029D0007FFEC6E6B5F5FF5F01D91046C1E6884621
:1029E0000069002114F0D5FD3946884F224638464B
:1029F00046F074FE2A463146E01946F06FFE002389
:102A000061191A463846FFF77EFAD8F808000069BF
:102A100014F0D0FD0020A4E67FB57D4DA86818B164
:102A20006FF0020004B070BD2C2004F0E2F8040046
:102A30006FF0010606D0012104F1100014F099FD99
:102A400000BB01E03046EDE7082104F1140014F06A
:102A500001FE18B1206914F097FD13E06D480023C2
:102A600013224FF400718DE80F006B4A6BA1002018
:102A7000AB6814F06FF848B1206914F085FD606907
:102A800014F0FDFD204604F087F8DBE76548206080
:102A9000002121716171A17104F10800A060A161A0
:102AA000E16121626162E060AC605F4C206840F4EB
:102AB00080002060012003F0A6FE0020FFF7A0FBAD
:102AC000A8684079FFF773F9012003F0A9FE206898
:102AD00040F002002060A868006803F0AFFE524892
:102AE0000C30016821F01C010160016841F4E071C3
:102AF0000160206840F480102060206840F40020CD
:102B0000206049491031086820F040000860152015
:102B1000FEF7E8FD002085E76FF00400704770B510
:102B20000E46102804D31038C5B24FF4C06401E03B
:102B30000546002414F098FE03463C48221810680D
:102B40000121A94041EA00051560384D2D1F2C4494
:102B5000256816B12943216001E08D43256010608E
:102B6000BDE87040184614F088BEF0B52F4D012422
:102B70000C352F1D4FF4C06307F1040CA0F11002B7
:102B8000012914D0022926D0D61C032950D00429AB
:102B90006BD0052979D0062932D1911F0C292FD964
:102BA000173902292CD9102870D3D0B28AE02928ED
:102BB00026D02A2824D02D2822D0102801D3D0B204
:102BC00000E0002359190A68844022430A60D8199A
:102BD0000168A14345E01D2812D02B2810D02F28D2
:102BE0000ED0102801D3D0B200E0002359190A6892
:102BF000844022430A60D8190168A14350E0016073
:102C0000F6E50000000001400300380020800320AA
:102C10000C000020FC3E002015250108686F73742D
:102C20007370690080841E0000040140040C0140A0
:102C30002328E5D02428E3D02728E1D20028DFD0BC
:102C40000728DDD0022EDBD9102801D3D0B200E056
:102C5000002359190A68844022430A60D819016880
:102C60002143016003EB0C0039E00028C8D00128A3
:102C7000C6D00628C4D0022EC2D9022AC0D9232821
:102C8000BED2102803D3D0B202E00FE019E0002337
:102C900059190A68844022430A60D81901682143FF
:102CA000016003EB0C0001682143A8E7102801D361
:102CB000D0B200E0002359190A688440A2430A6098
:102CC00096E5002359190A688440A2430A60F8482F
:102CD00018440168A1430160F548001D18440168CB
:102CE000A1438CE7F0B50F461646102805D3A0F196
:102CF0001001CCB24FF4C06501E004460025052167
:102D0000FFF733FFEA48012117B1012F06D00BE08E
:102D10002844026801FA04F31A4304E028440268D4
:102D200001FA04F39A430260E148001D4EB1012EFE
:102D300001D0022E04D128440268A1408A430260D7
:102D400056E528440268A1400A43F8E710B500227E
:102D5000044611461046FFF7C5FF34B1012C06D1D9
:102D60000121BDE810400020D9E60021F9E710BD9F
:102D7000D0490A6822F480320A60D0E9002342EA8E
:102D80000322836842EA0342C36842EA03620B1FDC
:102D90001A60D0E9042042EA00200860086840F484
:102DA000803008607047C349091F0968C14A12682A
:102DB000C2F3062302F00F02C0E90423C1F3046248
:102DC000C260C1F304428260C1F3052201F03F01F9
:102DD000C0E900127047B749091D0868800607D589
:102DE00020200860B4480168002901D040680847E5
:102DF0007047B14AC2E900012520FEF773BC10B547
:102E000004462520FEF76EFCD4E9000140EA0120CB
:102E1000A16840EA0140E16840EA0161D4E90402A6
:102E200040EA0220A34A40F48030106041F00040A4
:102E3000111F086010BD9F49091F086820F000405D
:102E4000086000212520FDF71ABD9B482838406AFC
:102E5000002800D00047704797492839486223204E
:102E6000FEF740BC10B5042802D94FF0FF3010BD6A
:102E700007D1924A106820F47F4040EA0120106098
:102E800009E08E4B1C3B1A68C000FF248440A2431B
:102E9000814011431960002010BD70B5042802D98B
:102EA0004FF0FF3070BD0CD1854803689BB243EAF8
:102EB00001410160016821F47F4141EA0221016082
:102EC00018E07F4B44082C3B03EB84031D68C407C8
:102ED000E40E4FF6FF76A640B543A14029431960A2
:102EE000774B203B1968C000FF248440A1438240F7
:102EF0000A431A60002070BDF0B54FF0FF3404287B
:102F000040D86F4B00F10B021B1F01259540C1B14A
:102F1000DFF8ACE10129AEF1240E15D00E224FF4FA
:102F2000C05C02EB50060CFA00FC0122B240022900
:102F300014D047080126BE40032920D0042938D0E8
:102F400020E01868284348E0E0B9186820F4784089
:102F50001860DEF8000040F0400027E008B10228C9
:102F600010D1186820EA0C001860DEF8000020F08C
:102F70004000CEF80000DEF80000104316E018B163
:102F8000022801D0204633E4186820EA0C001860BB
:102F9000DEF8000020F04000CEF80000DEF800006F
:102FA0009043CEF80000DEF800003043CEF8000079
:102FB00014E0DEF8001021F04001CEF800100428E3
:102FC00009D0DEF80000B043CEF80000DEF80000C3
:102FD0009043CEF800001868A8431860002007E46A
:102FE00070B54FF0FF36042836D81BD1334821B1D5
:102FF000012906D002290CD03CE0016821F0100123
:103000000AE0016821F010010160016841F0080147
:1030100006E0016841F010010160016821F008013B
:10302000016027E0274C51EA000207D1226822F410
:1030300000322260226822F48032226011220123B1
:1030400002EB400503FA05F2102505EB4000834032
:10305000012903D0022907D0304670BD2068904373
:1030600020602068184304E0206810432060206836
:1030700098432060002070BD042802D94FF0FF3033
:1030800070470AD10D4A0129106803D020F00200D0
:1030900010600BE040F00200FAE70A4B0122083012
:1030A0008240186801290FD09043186000207047B3
:1030B000080C014010060040340000203018014088
:1030C0002C180140081801401043EEE7042802D9EB
:1030D0004FF0FF30EBE70AD1F94A0129106803D01D
:1030E00020F0010010600CE040F00100FAE7F44B22
:1030F0000122283B801C82401868012903D090439C
:1031000018600020D3E71043FAE710B5042802D96D
:103110004FF0FF3010BD07D1EA4A106820F0FF00E1
:1031200040EA0100106009E0E64B1C3B1A68C00051
:10313000FF248440A243814011431960002010BD48
:1031400078B1042802D04FF0FF30B0E7DC4A0832F3
:103150000129106802D040F0040009E020F00400CA
:1031600006E0D84A243A0129106804D040F480507F
:10317000106000209BE720F48050F9E730B508B1DB
:10318000022801D1032A02D94FF0FF3030BDCD4CC7
:10319000CC4D243C143D012907D038B3012825D05B
:1031A000022827D0032825D028E0296821F44031BF
:1031B00041EA0241296030B1012804D002280BD035
:1031C000032809D01AE0286820F0FF00184328607F
:1031D000206840F4801010E0286820F47F4040EA26
:1031E00003202860206840F4001006E0206820F4E6
:1031F000801002E0206820F400102860002030BD1C
:1032000020B104280DD04FF0FF3050E7AD4A243AEA
:103210000129106802D020F0007009E040F0007031
:1032200006E0A74A08320129106804D020F0010006
:10323000106000203BE740F00100F9E710B50428DA
:1032400002D94FF0FF3010BD00F10B040123A34061
:103250009C4C241F012902D02068984308E0C01C20
:1032600001218140206832B18843206020681843E2
:103270002060002010BD0843F7E720B1042808D0E3
:103280004FF0FF3013E78F492439086840F0807011
:1032900004E08B490831086840F002000860002013
:1032A00005E7884B103B042802D94FF0FF30FEE6BB
:1032B00007D1186811B140F0100009E020F01000AB
:1032C00006E001228240186809B1104300E09043F3
:1032D00018600020EBE620B1042834D04FF0FF3016
:1032E000E5E678481038022905D061B1012916D0E9
:1032F00003291CD059E0016841F0200101600168F8
:1033000041F0400106E0016841F0200101600168E0
:1033100021F040010160016821F0800144E0016872
:1033200041F040010160016821F02001F2E70168ED
:1033300041F080010160016821F020010160016815
:1033400021F0400130E05E480830022905D061B12B
:10335000012916D003291CD027E0016841F48071AF
:103360000160016841F4007106E0016841F4807178
:103370000160016821F400710160016821F480613D
:1033800012E0016841F400710160016821F480716C
:10339000F2E7016841F480610160016821F4807105
:1033A0000160016821F40071016000207FE62DE9D1
:1033B000F047C0F3072480460D46164699464FF065
:1033C000FF3A042C10D808F0FF0739462046FFF7D3
:1033D00093FD48B9032F0AD1F3B22A0EC5F3074172
:1033E0002046FFF7CBFE10B15046BDE8F087C6F38C
:1033F00007212046FFF7F4FDEAB24FEA18412046C4
:10340000FFF74BFDC5F307212046FFF72BFDC6F361
:1034100007412046FFF730FE310E2046FFF756FEEB
:1034200009F0FF012046FFF770FEC9F3072120468F
:10343000FFF737FF0CB1042C03D101212046FFF721
:103440007FFE012F04D11CB901210420FFF778FE73
:103450000020CAE770B5040015461E4604D0042CAF
:1034600002D04FF0FF3070BDFF22FFF716FD294656
:103470002046FFF7C5FE2046FFF7FFFE002120464D
:10348000FFF7AEFD1CB900212046FFF759FE0121D0
:103490002046FFF7F1FD31462046FFF71CFF0020D4
:1034A00070BD042802D94FF0FF3000E6054A243AE7
:1034B00011681B3001238340194311600020F6E599
:1034C000301801402C180140042802D94FF0FF3079
:1034D000EDE5FD4A11681B300123834099431160DB
:1034E0000020E4E53EB504460D46042814D868469D
:1034F000FDF798FCF54900984843000AB0FBF5F049
:1035000085B22046FFF7E0FFFF2229462046FFF75D
:10351000C4FC2046FFF7C5FF3EBD042800D8A1E447
:10352000C5E52DE9FE418446884614461D46684699
:10353000FDF778FC0022FF20114660F307014FF0F1
:103540000100134660F30F231E4660F31746104632
:10355000134665F3070362F31F6662F30F2364F3F8
:103560000F21DA4C009A4FF0040702FB04F24FEAF5
:103570001224B4FBF8F267F307006CF30F2062F338
:103580001F403246FFF713FFBDE8FE818FE5D049AB
:103590000020C870CF490860CE49F4310860CD4999
:1035A000401E0831086082E52DE9F041CA4D04460D
:1035B0000E4655F82000174630B90C2003F019FBD1
:1035C00045F82400002807D0066055F8240047601D
:1035D00055F8241000208860BDE8F0812DE9F04105
:1035E000BC480C380668BA4F0024BB4DF8784FF041
:1035F0000108401CF87008FA04F0304209D055F870
:10360000241048680968884755F824008168491CD7
:103610008160641C292CEEDBF878AE49401EF870FE
:10362000002024310860D7E73EB50446AB48844209
:1036300002D38000844200D904466846FDF7F2FBBD
:10364000A2490098A64A484304EB8401B0FBF1F07C
:10365000401EC1B21160111DC0F307200860C020D8
:10366000091D08601320FEF73DF83EBD9C4940202F
:103670001031086008688007FCD418E5984A10B536
:103680000020103211688907FCD411684FF40073D0
:103690000CE0401C80B2984207D992A046F086FF09
:1036A000FFF7E4FF4FF0FF3010BD11680906F0D4BA
:1036B000002010BD8A4A0C321060121D09B1902002
:1036C00000E01020106010688007FCD4EFE4202296
:1036D00000B9282209B142F04002814910310A6044
:1036E00008688007FCD47E480C300068C0B2DEE475
:1036F00070B582B17A4DE860774C8026A434607052
:103700000020A07026736260238160812170902068
:103710002861002070BD4FF0FF3070BD30B57AB128
:103720006F4DE8606C4CA43460700020A070207372
:10373000626023816081217090202861002030BD6B
:103740004FF0FF3030BD6449A4310861AFE42DE98A
:10375000F041634C266901252561B00602D565A0BC
:1037600046F024FFF0071AD05B49300601F1A401AE
:103770004FF0060288784BD4102620234FF0050C1A
:1037800006280CD2DFE800F0030E16242741087843
:10379000E0602661087B000602D5022088701BE7E6
:1037A0008D7019E7487840F00100E06090202061BA
:1037B0000320F3E748894A68125CE260401C80B24B
:1037C000488126610A899042E9D181F802C003E765
:1037D000042088700FE0E56848894E6868273554F2
:1037E000401C85B24D810889461EB54201D1276132
:1037F000EBE7012801D02361EEE627618A700869B2
:103800000028CCD0BDE8F041004740202061F5E71A
:103810000528C4D1087B8028C1D0E0684C894B685A
:103820001855EBE770B53749416100204D07364E1A
:1038300003460C4600E007DA40F27712424306EBFB
:103840008202C1E9005201E00B604B60022807D000
:1038500001F10C028A600C31401C0328EBDB70BDC7
:103860008C60F8E730B52849284C303901610020D8
:1038700002460B460A6040F27715454304EB850586
:10388000C1E90125CA600A61012807D001F11805C4
:103890004D611831401C0228ECDB30BD4B61F8E76C
:1038A0004FF0004101601A490120086012E40A4803
:1038B00010B5B830C16811B10069083088471449A3
:1038C00001201839086010BD0818014040420F005F
:1038D0000C0000200CF0FFFFFC400020A08601003F
:1038E00000000140776169742061636B206572722A
:1038F0000A00000049324320414C206C6F73740D64
:103900000A0000007CBD0320E8AB032000A00320D8
:103910001803004070B5F84D294628784C6948B91D
:103920000CE0A96809B1606888472046FFF7B8FF36
:10393000A4686C6120680028F3DA03E0A96809B183
:1039400060688847ED490220086070BD10B5EA4CF8
:10395000616809B1EA488847207818B1E749012031
:103960000C310860E54908200860ACE7E5A046F0A6
:103970001DBEE949012008600020091D0860091DDD
:1039800008600320091D0860091D08603DE4E44942
:10399000E2480860E24A40F22241121D1160121D05
:1039A000E0491160121DE0491160FF21121D1160F4
:1039B000D34A803A1060121DDC4810601120121D9D
:1039C0001060121D4FF000701060121DD84810607A
:1039D000121DD8481060121DD7481060881C121D97
:1039E00010600020121D1060121D1060121D10606A
:1039F000121D1060101D016007E400B5FFF7C7FF3E
:103A0000CF49CE480860091DCE480860CC491C311A
:103A100008686FF30B0000F232200860091D40F2C5
:103A2000FD20086000BD10B5B34C1821204645F0BC
:103A30007DFE2046FFF7F6FE2046FFF713FF01202C
:103A4000FDF750FE0020FDF74DFE0320FDF74AFE76
:103A50001620FDF747FEB248A84924381431086003
:103A60000120091F0860A54918310860A34AB6491A
:103A700024321160111F0860A04AA1493032116040
:103A80000102121D11609D490C3108609B49002004
:103A9000091D086017E7022802D0032801D1ACE70E
:103AA00067E704E494490028087003D000204860C8
:103AB0008860C8600EE4904948600BE48E498860D5
:103AC00008E48D49C86005E42DE9F35F0F460098CE
:103AD0000D4628B1002F03DD40F6B830874205DDE2
:103AE0009AA046F063FD0020BDE8FC9F824E346939
:103AF000206800281ADA012013F0E8FFF8E74646AC
:103B0000454500DC2E463246A068009945F0E6FDAA
:103B10003003C4E900B079492831C1F800A06469D4
:103B2000AD1BC9F81040002D07DC09E040F2DC585D
:103B3000B1464FF0010A4FF0004B20680028DEDA52
:103B4000781BD1E7874930B400200A680346012476
:103B500004FA00F1114205D1401CC0B20F28F7D978
:103B6000002B09D0804A52F83010002904D002EB13
:103B7000C000406830BC084730BC70477B4830B458
:103B80000368002410200125A0F1100205FA02F1BB
:103B9000194205D1401CC0B22F28F5D9002CEBD01A
:103BA000714A52F830100029E6D002EBC00040689C
:103BB00030BC0847E0E710B5102804D31038C0B275
:103BC0004FF4C06100E00021664A303A0A441368AD
:103BD0000124844044EA03001060624834380858E5
:103BE0001360044201D001206DE600206BE6F0B4C2
:103BF000102805D31038C0B24FF4C062282401E069
:103C000000221924574E0123143E06F1040C0CF136
:103C1000040505293DD2DFE801F0030E1E2A32001B
:103C200097193E6803FA00F18E433E6002EB0C06E2
:103C300037688F4320E097193E6803FA00F18E43FE
:103C40003E6002EB0C0637688F43376015442E68E0
:103C50008E432E601DE095192E6803FA00F18E4305
:103C60002E6002EB0C052E683143296011E01644EA
:103C7000376803FA00F10F4337601544F3E7164441
:103C8000376803FA00F10F433760561935688D43E2
:103C900035603449083911440A68834013430B6086
:103CA0002046F0BCFDF71EBD102804D31038C0B26A
:103CB0004FF4C06100E000212A4A083A11440A6822
:103CC000012383409A430A6000211920FCF7D7BDE5
:103CD000102804D31038C0B24FF4C06100E00021B6
:103CE000204A121F8958012282400A4201D0012035
:103CF00016E4002014E40000B4410020000300405A
:103D0000A0BE0320737069204853206972716861F6
:103D10006E646C650A0000000002004021020C0085
:103D2000A0BD03200832200496024753222A010135
:103D3000000300080080FF00080A0F01A0AD032067
:103D400008000040209E0320B8AB03200A6873706F
:103D50006920747820706172616D206572726F7273
:103D60000A000000340C0140E03B00203412014006
:103D7000102804D31038C0B24FF4C06100E0002115
:103D8000FF4A11440B68012282401A430A600AE488
:103D9000FC4B43F8301003EBC000426003E42DE914
:103DA000F04106464FF480700F461D46834200D90D
:103DB0000546F5482C4602E002CA02C0241F002C2A
:103DC000FAD102F078FDF14800EB0541F0483143AB
:103DD0000160C7F31301C20342EA012141600020E0
:103DE00021E4F0B5E94F9E0803F00304002507EB3A
:103DF00003430343E6480360C1F31301C30343EAEB
:103E000001214160E04802E002C802C26D1CB542D7
:103E1000FADB002C07DD006842F8030B002002F8F3
:103E20000109641EFBD10020F0BDD948D9490160C9
:103E3000C1034160D0F80002C0B21EE42DE9FF4F7B
:103E40004FF0000783B05FEA010B109980461D46D2
:103E5000BA46B9463E46BC46009701976FD01198C6
:103E60004FF4007218B9002D69D0914267D3FFF763
:103E7000DCFF02901C280BD0C749C84BC84C8528D2
:103E80001AD0C8281FD14FF4807AD146022617E0F5
:103E9000C148012624380090C148DFF800C34038EB
:103EA0000190BB483A214FF47F279146ACF13D0C7D
:103EB0000160C103416006E04FF48057914601263E
:103EC000CDE900149C46002408E004FB09520AFBDB
:103ED00004714B466046FFF784FF641CB442F4D380
:103EE000119858B1002005E000EB08016A5C0BF85E
:103EF0000020401C05998842F6D334E0002405E0F8
:103F00000AFB0471009802F0DCFC641CB442F7D395
:103F1000059AC8F50070904200D80246002005E0DE
:103F20001BF8003000EB0801401C6B549042F7D3A3
:103F30004FF000084FF4807B13E000240CE01AE0FF
:103F400007EB04220AFB08215B462A460198FFF78B
:103F500026FF05F58075641CB4EB192FF0D308F12A
:103F60000108B045E9D302981C2804D188490420EF
:103F700008608006486007B0BDE8F08FF0B5844C5B
:103F8000DDE9057C4CF205052560E5036560D4F8A4
:103F90000062890141EA421141EA031141EAC70185
:103FA00041EA8C0106F083020A4306232360656020
:103FB00002F083020A4342EA8031C4F800124AF256
:103FC0000101216065604CF2850121606560D4F8D3
:103FD00000122360656001F0BF0141EA8010C4F85F
:103FE00000024AF2C10020606560F0BDF0B5684C87
:103FF000DDE905CE4CF205052560E5036560D4F8E2
:1040000000624CF23507F6B227606560D4F80072A2
:10401000FFB246EA0726062727606560890141EA64
:10402000421141EA031141EACC014BF6837241EAA5
:104030008E0116400E4346EA8030C4F8000259480B
:1040400020606560F0BD0CB5FFF7EFFE1C280FD0B7
:10405000852804D0C82802D04FF0FF300CBD0023C3
:104060000122CDE9002311461846FFF7BFFF07E004
:1040700000230122CDE9002311461846FFF77EFFF9
:1040800000200CBDDFE770B50024960802F00305A0
:10409000DB0701D0444B01E0404B3D3B521EC2F3D5
:1040A000090243EA02433A4A1360C0F31300D30300
:1040B00043EA00205060344802E004C804C1641C94
:1040C000B442FADB002D0BDD006841F8030BC5F1AB
:1040D0000400002202E001F80129401E0028FAD164
:1040E000002070BD2DE9F74F0646C5B29246002468
:1040F0004FF4805002F07DFD070021D026F0FF0034
:104100004FF4807B814600235A463946FFF7BBFFB8
:10411000C5F5807290465046524507EB05014FD2D7
:10412000019845F0DBFA0199AAEB080008EB0106BB
:1041300009F580754FEA102800F0FF09DA4613E010
:104140000620BDE8FE8F0023D44652463946284655
:10415000FFF799FF62463946304645F0BFFA06F54B
:10416000807605F58075641C4445ECD35FEA090050
:1041700021D00246002339462846FFF784FF15E088
:10418000380C0140E03B0020002200400000FFFF0F
:10419000002000409FC002004408008048C000BCCE
:1041A0004290008001A00100EBC000EC4A46394675
:1041B000304645F093FA384602F0EEFC0020C0E7A6
:1041C00002460198F5E72DE9F05FFC4D044688466C
:1041D000E868164658B302F092FB24F07844A042F7
:1041E00028D93EB3B8F1000F24D028460021C0687A
:1041F000006813F0CEF94FF4805B584602F0F9FCEA
:10420000070019D04FEA1439C4F30B04C4F58055E4
:10421000AE4200D835464FEA093082465A46394602
:10422000FFF760FF504602F063FB002010E0032020
:10423000BDE8F09F0120FBE7E048C068006813F08C
:10424000B9F90620F4E718F800100219401CB95417
:10425000A842F8D300240AEB042007EB04224FF411
:10426000807102F03DFB641C102CF4D3AE4208D0E8
:10427000761B0024A84409F101095D465E45CAD8B1
:10428000C8E7384602F088FCCC48C068006813F0E4
:1042900091F90020CCE70CB5FFF7C7FD1C280FD023
:1042A000852804D0C82802D04FF0FF300CBD002371
:1042B000CDE90033002211461046FFF797FE07E0D4
:1042C0000023CDE90033002211461046FFF756FEC9
:1042D00000200CBDDFE72DE9F041B84D04460E4645
:1042E000E8681746C0B102F00AFB24F07841884222
:1042F00014D99FB196B1E8680021006813F049F91C
:104300003A4631462046FFF7EDFEE8680024006893
:1043100013F050F9204663E5032061E501205FE5D5
:104320002DE9F04F87B00024DFF8948202940394C3
:104330000694A44ED8F80000B04201D101201AE63C
:104340004FF4007B584602F054FC5FEA000909D0A4
:10435000802002F04EFC050004D04FF0006A4FF0C0
:10436000FF3728E0002006E62CB30123CDE900B397
:104370004B46802229460020FFF760FD2868B042A6
:1043800028D104F04BFB03231A46394604A802F057
:10439000CBFB742205F10C0104A802F08BFB06A9EB
:1043A00004A802F071FB68680699884209D002A847
:1043B00040F824700EE0802229465046FFF78BFF1C
:1043C000DCE7D8F80000B04204D0802229467C48BF
:1043D00045F084F9641C022CC6DBDDE902010844C7
:1043E000801C1CD00298002809DAFFF754FF8022B5
:1043F00073495046FFF7E7FEFFF725FE0FE000295F
:1044000004DBD8F804006968884208D00023CDE9AD
:1044100000B34B4680226A490020FFF70FFD484653
:1044200002F0BAFB284602F0B7FB87E703460846CE
:1044300010B56349092B1FD2DFE803F01E05080AF7
:104440000D0F111315005E490C3111E0496900E0B0
:10445000896901600EE0C969FBE7096AF9E7496A01
:10446000F7E7896AF5E756492C31542A00D35422DC
:1044700045F034F9002010BD4FF0FF3010BD7FB57E
:104480004FF0FF35F1B3EAB34D4C092804F10C06A7
:1044900055D2DFE800F05405070A0D101316190075
:1044A000304616E00868606115E00868A06112E017
:1044B0000868E0610FE0086820620CE0086860624C
:1044C00009E00868A06206E0542A00D354223C4860
:1044D0002C3045F003F904F0A1FA03231A462946CB
:1044E00002A802F021FB374820607422314602A85E
:1044F00002F0E0FA211D02A802F0C6FAFFF7CBFE97
:10450000802200E01BE02E491005FFF75CFEFFF75C
:104510009AFD4FF40075284602F06BFB04000BD0A7
:104520000023CDE900530346802225490020FFF7F0
:1045300085FC204602F030FB002004B070BD284608
:10454000FBE706220146012070E706220146012012
:1045500095E704220146022068E704220146022072
:104560008DE704220146104660E70422014610460A
:1045700085E704220146052058E70422014605206C
:104580007DE704220146062050E70422014606206A
:1045900075E704220146072048E704220146072068
:1045A0006DE770B505460C46FFF775FE06484FF0FF
:1045B0000402294654B1FFF706FE09E00C00002072
:1045C000CC4100209FFFFFA080000008FFF783FE82
:1045D000FFF739FD002070BD70B505460C46FFF7AA
:1045E0005AFEFF484FF00402294614B1FFF7EBFDD5
:1045F00001E0FFF770FEFFF726FD002070BD10B54B
:10460000014654220820FFF711FF002010BD10B50D
:10461000014654220820FFF732FF002010BD7FB56D
:10462000F0A1054691E80D00C96803918DE80D00E1
:10463000002410226946EF4845F0DDF830B9102219
:10464000EC49ED48FFF747FE040004D11022E94988
:10465000284645F043F820466FE70121FDF778BB77
:104660004FF47A714843F8E70021FDF771BB400031
:104670008140E2480160704770B5E049C0B2096806
:10468000032303280BD90420440003FA04F20A424E
:1046900003D1401CC0B20828F6D3082834D0420009
:1046A0009340D74C0B4205D000EB800314F8235005
:1046B000032D1FD0012393400B4205D000EB800354
:1046C00014F82350012D15D0022393400B421BD028
:1046D00000EB800214F82210022915D10321FFF704
:1046E000C6FF04EB8200C16800290DD00069BDE857
:1046F000704008470321FFF7BAFF04EB83004168CD
:10470000002901D08068F2E770BD0020B4E70120E5
:10471000B2E70220B0E70320AEE70420ACE770B5B3
:104720000728049D00D901B300EB40064FF08040FC
:1047300000EB06108C68C0F81844CC68C0F81C4424
:1047400043EA0543C0F8203402B10122496800F26F
:104750002440C1F3100142EA41018160016841F047
:10476000010101604FF0000070BD012070BD10B567
:10477000A44C21680128C1F303126FF30B0141F02F
:1047800000430AD002209100B1FBF0F1090241EA96
:10479000021101431943216010BD0420F3E79A4A36
:1047A000116840B1022809D001280AD19448A030EC
:1047B000007802215BE741F4807001E041F4007071
:1047C000106070479048001F0068C0F30D007047EC
:1047D00038B58D4804688A4DE00505F1A00510D56F
:1047E00084490120983948700020FFF7D8FFFFF76F
:1047F000E9FFADF80000686818B16A6801216846F1
:104800009047A00509D50220FFF7C9FFA868002836
:1048100003D0AA6800210846904738BD7848A030E8
:10482000C168002903D0018AC268784810477047E0
:1048300070B5754A044600200D4610601420FCF740
:1048400051FF002C0ED000212846FDF775F86C4969
:10485000A03108700878BDE87040022300226C493E
:10486000FDF746B870BD664AA03228B1012805D0D0
:10487000022800D19160704751607047D160704745
:10488000614A00F00F01106820F4FF2020F01000B2
:10489000084310601068082940F0500005DA20F045
:1048A0007C4040F4800040F0F8401060704756486B
:1048B000016821F4FF2121F010010160016841F03D
:1048C0005E0141F4806141F48001016070474E4A0D
:1048D000116821F4FF2121F010011160116841F0ED
:1048E0005C0110B141F4000001E021F4000020F46B
:1048F000800040F0200040F0407010607047424857
:10490000016821F4FF2121F010010160016841F0EC
:104910005D0141F4800101607047F0B50C2879D247
:104920004FF6FC72914200DD1146354BA0331982DF
:10493000DFF8D4C000F00F00DCF8002022F01002F5
:10494000CCF800204FF08044022206E01D7805EBF1
:10495000450504EB0515C5F824241D7805EB450530
:1049600004EB0515D5F82454ED07EFD1264A1D7840
:10497000121F05EB450504EB0515C5F81024234A65
:104980001D7805EB450504EB0515C5F81424DCF886
:1049900000201927012608285CD0092864D00A289D
:1049A0006DD00B2877D01D7807EB800705EB450508
:1049B00004EB0515C5F8287400F10B0706FA07F596
:1049C0001543CCF80050282242EA4122197801EB25
:1049D000410104EB0111C1F82C24D4F800141AE0B1
:1049E00084000008FFFFFFFFFFFFFFFFFFFFFFFF47
:1049F000FFFFFFFFA4000020101000080404004087
:104A00004C420020100700400402014000800220B8
:104A10001D4801081DE01A7806EB420206FA02F270
:104A20009143C4F80014197801EB410104EB011122
:104A3000C1F82464DCF8001041F01001014308289B
:104A400005DA21F07C4040F4800040F0F841CCF8D9
:104A50000010F0BD1D7805EB450504EB0515C5F804
:104A6000287442F40065ACE71D78212705EB450565
:104A700004EB0515C5F8287442F40055A1E71D782C
:104A8000292705EB450504EB0515C5F8287442F404
:104A9000004596E7FFE71D78312705EB450504EB58
:104AA0000515C5F8287442F400358AE7FF4A1168F5
:104AB00021F010011160002803D0FD480078FDF7B7
:104AC000E6B97047F94B10B51B1FC0F30D0218680B
:104AD000F84C204040EA823018601A1D106840F0FF
:104AE000800011B140F4001001E020F400101060CB
:104AF00010BD30B5ED4D03460846296803F00F049C
:104B000021F4FF2121F01001214329601146FFF714
:104B1000D9FF2868082C40F0100005DA20F07C400E
:104B200040F4800040F0F840286030BDDF4A116852
:104B300010B1012805D008E021F4801040F40021D4
:104B400003E021F4002040F4801111607047DA4A3C
:104B50001168DA4B194041EA003040F00040106023
:104B600070470188B1F5005F02D3A1F5005101E063
:104B700001F500510180704710B500210846FFF78C
:104B800057FE0120FFF7D2FFCD4C00206070FFF7E9
:104B90008EFE01F0C6FEFFF715FEA0800020FFF795
:104BA00085FFA08810BD7CB500210846FFF740FEB8
:104BB0000120FFF7BBFFC24D00246C700120FFF7FE
:104BC00086FE01F0AEFEFFF7FDFDADF8040000200B
:104BD000FFF76CFF291D01A8FFF7C3FF6C700020D1
:104BE000FFF775FE01F09DFEFFF7ECFDADF800004C
:104BF0000020FFF75BFF291D6846FFF7B2FFBDF8F5
:104C00000000BDF80410401A00EBD0704FF40051C2
:104C100001EB600080B2AB49C0EB401001EB8000BB
:104C20007CBD38B500240546ADF80040FFF7A4FF71
:104C300000210846FFF7FCFD0120FFF777FFA049A0
:104C40004C702846FFF71CFE01F06BFEFFF7BAFD23
:104C5000ADF800000020FFF729FF99496846091DBB
:104C6000FFF77FFFBDF8000038BD08B5FFF784FFF0
:104C700000210846FFF7DCFD0120FFF757FF9049B0
:104C800000204870FFF73BFE01F04BFEFFF79AFD56
:104C9000ADF800000020FFF709FF89496846091DAB
:104CA000FFF75FFFBDF8000008BD10B5FFF764FF18
:104CB000BDE8104077E770B5102804D31038C0B2B3
:104CC0004FF4C06100E000217F4A8B58121D8C58C0
:104CD000121D8A587C4D083D4D597B4E361F8E590A
:104CE0000121814019420DD0214201EA020102D086
:104CF00031B1042070BD09B1022070BD012070BD2A
:104D0000032070BD294203D1314201D0062070BD7D
:104D1000052070BD70B505466C4800684FF016015F
:104D2000C0F301104FEAC00404F10804674801F021
:104D300040FD08B1012100E00221654A05FB04F0B5
:104D400000FB0122680060434843B2FBF0F1614878
:104D5000491E026822F47F420260026842EA012191
:104D6000016070BD70B50446514814304069016857
:104D7000594A11400160D4E902211143626811438C
:104D800001602078514D48B101220221284601F0EE
:104D900005FD01221321284601F000FD607848B18D
:104DA00001221146284601F0F9FC01221221284671
:104DB00001F0F4FC2069BDE87040ABE73C4A00B567
:104DC000143285B04149516178B91421684644F0E4
:104DD000ADFC102003900020029001904FF4FA5097
:104DE000049001208DF801006846FFF7BBFF2420E6
:104DF00001F0C8FC2420FCF775FC05B0002000BDC4
:104E000070B5054631480E4600684FF01601C0F3F4
:104E100001104FEAC00404F108042C4801F0C9FC59
:104E200008B1012200E0022205FB04F0504300EB30
:104E30004601680060435043B1FBF0F12548491E2C
:104E40000268264B02EA03020260026842EA01217C
:104E50000160016841F00101016070BD2DE9F04180
:104E60001A4F09210837384601F0A3FCA7F10408BE
:104E700030B10921404601F09CFC08B97815386032
:104E80000821384601F095FC38B10821404601F070
:104E900090FC10B94FF4807038600721384601F05B
:104EA00088FC10B3072140461AE0000004020140CC
:104EB000EC420020FF3F00F010070040FF0F00F021
:104EC0000C0000200C3FECFF100C0140001A0140C8
:104ED0000068890918070040CFFFBFFCFF00FCFFF6
:104EE00001F067FC08B9802038600621384601F0DF
:104EF00060FC40B10621404601F05BFC18B940203F
:104F0000386001F03DFD0521384601F052FC30B11A
:104F10000521404601F04DFC08B9202038600421ED
:104F2000384601F046FC30B10421404601F041FC16
:104F300008B9102038600321384601F03AFC30B13E
:104F40000321404601F035FC08B9082038600221F1
:104F5000384601F02EFC40B30221404601F029FC06
:104F600018BB04203860FF4C6669F068E36900F004
:104F70000F0133B919E07569628C43F82250521C55
:104F800062840800A1F10101C9B2F4D1608C218CC6
:104F900088420AD3002529460420E56101F0E5FC9A
:104FA000E16A09B1208C884765840121384601F007
:104FB00000FC30B10121404601F0FBFB08B90220A2
:104FC00038600021384601F0F4FB002807D00021AA
:104FD000404601F0EEFB002801D101203860BDE819
:104FE000F081E049C8627047DE49086370472DE9E7
:104FF000F0410646DB480D460021183012F0B9FAA0
:1050000010B14FF0FF30EAE7D74F012212213846A6
:1050100001F0C4FBD44940F2FF100831086024209D
:1050200001F0B0FBCF4C0520666225850025658523
:1050300001F08EFC0121402001F097FC0122114675
:10504000384601F0ABFB3846016841F001010160D0
:105050002946A06912F09DFAA06912F095FA002283
:1050600001213846A56101F099FB0020B7E770B532
:10507000BC4C15466062218500206085052001F04A
:1050800067FC0121402001F070FC2563B64C012231
:105090001221204601F082FB01221146204601F038
:1050A0007DFB2046016841F0010101604FF00000E6
:1050B00070BD70B5AB4C1546E06121840020608462
:1050C000052001F035FC0121042001F04EFCE562D1
:1050D000A54C01221321204601F060FB242001F0A1
:1050E00051FB01220221204601F058FB20460168B5
:1050F00041F0010101604FF0000070BDF0B59A4F22
:1051000006460D46144685B000220121384601F0BE
:1051100045FB01221221384601F040FB042001F03A
:1051200017FC0021402001F020FC212040EAC4109F
:105130008D49CDE901051031C80600900020CDE968
:105140000310024669463046FCF7AFFB05B0F0BDE0
:105150002DE9F041844D06460F469046012212216A
:10516000284601F01BFB804940F2FF10083108601F
:10517000242001F007FB01221221284601F00EFB3A
:105180003D210420FCF7D8FB04004FF0FF3202D091
:10519000FCF763FE08B1104621E73A463146204647
:1051A000FFF7ACFF0223002241462046FCF7A0FB9C
:1051B0006D4C206840F4801020604FF001021146D1
:1051C000284601F0EBFA206840F001002060002042
:1051D00005E7F0B507460D4685B0164600210420C8
:1051E00001F0C3FB604C00220221204601F0D6FAF8
:1051F0002046016821F4001101604FF001024FF0D8
:105200001301204601F0CAFA042001F091FB0021AD
:10521000042001F0AAFB544869461430CDE9020588
:10522000242040EAC6100190A0050090002002460C
:1052300004903846FCF739FB88E72DE9F041054634
:105240000E46174639210520FCF776FB04004FF087
:10525000FF3202D0FCF701FE08B11046BFE632462D
:1052600029462046FFF7B5FF022300223946204693
:10527000FCF73EFB3C4C206840F4001020604FF0EF
:10528000240001F07FFA01220221204601F086FA73
:10529000206840F0010020600020A0E6334910B5EE
:1052A00000200860324C0721204601F082FA0028D5
:1052B000F9D0002201212C4801F070FA2D48016834
:1052C00041F0020101604FF00400FCF7E0FD2A49C3
:1052D0000120887010BD10B500220221224801F083
:1052E0005DFA2648016841F0020101604FF00500B7
:1052F000FCF7CDFD20490120887010BD10B50022BB
:105300000221194801F04AFA1B490120887010BD9A
:105310002DE9F0414FF48066304601F06AFC044606
:10532000104810210025C0E90251012141704FF4BD
:10533000FA5145600161FFF741FD002C33D0104A5E
:1053400021460020831808C1401CFF28FAD90C48C8
:10535000FA30AFF2B702C4F8FC03374631462046B4
:1053600010E0000000430020001A0140101A014024
:10537000081A0140E40400400C000020140500401D
:105380000002CDABFFF7E4FEFB4EB0780028FDD065
:10539000B570AFF2F70239462046FFF7D9FEB07874
:1053A0000028FDD0B5701AE610B5040000D13C24E9
:1053B0000B21F24801F0FDF908B1042000E00820BB
:1053C00060434FF4FA41B1FBF0F0ED49086010BDC5
:1053D0002DE9F04105460C4690460B21E74801F0C7
:1053E000E8F9020012D0042D01D3142C31D2E44F7D
:1053F00004F110013F1D381D031D1E1D082D28D26C
:10540000DFE805F0090C1319151F1A21082DEED33A
:10541000102C1ED2EBE74246214604E012B1424670
:10542000214612E0424638460FE0002AF7D04246B5
:105430002146184609E012B14246214604E04246A0
:1054400003E04246F5E742463046BDE8F04101F050
:10545000A5B9C4E5CA49143108607047C7490A684C
:1054600022F038020A600A6842EA00020A607047C5
:10547000C2490A6822F007020A600A6842EA00028A
:105480000A607047BD490A6822F0C0020A600A68D3
:1054900042EA00020A607047BA4958B1012813D1A4
:1054A00001F5C061086820F480600860086840F475
:1054B000007008E001F5C061086820F40070086021
:1054C000086840F480600860704710B5AB4A044635
:1054D000002010606078A178637940EA0100E178EB
:1054E00041EA030140EA0100217940EA010010602D
:1054F000E088FFF759FF2278A04C0821204601F0F0
:105500004DF920460022BDE81040092101F046B9BE
:105510009D49086880070AD5086840F002000860C5
:10552000954830300168002901D04068084770472D
:1055300095490868C00710D0086840F0010008606D
:1055400091491039086820F4803008608A48383062
:105550000168002901D04068084770478A490868F7
:1055600040070AD5086840F00400086082484030CF
:105570000168002901D040680847704782490868DF
:1055800000070AD5086840F0080008607A484830EB
:105590000168002901D0406808477047764A3032D8
:1055A000C2E900010920FCF79DB8734A3832C2E90C
:1055B00000010A20FCF796B86F4A4032C2E90001A8
:1055C0000B20FCF78FB86C4A4832C2E900010C206E
:1055D000FCF788B86C4A143A116810B141F0080021
:1055E00003E021F0080040F00400106070476649B5
:1055F00040F48030103908607047634910390868FA
:1056000020F48030086070475F49401E0C3940F438
:105610004030086070475C490C39086820F440301D
:105620000860704710B50B20FCF75CF85649143938
:10563000086840F00100086010BD534AEC32116860
:10564000814311607047504AEC3211680143116088
:10565000704710B54D4C227CB2B101002046007855
:1056600017D00521FDF781FA207A0521FDF77DFA93
:10567000207801220021FDF735FB207A0122BDE8C8
:1056800010400021FDF72EBBBDE8104040A044F0C3
:105690008DBF6168C9B2FDF768FAE068C1B2207ACF
:1056A000BDE81040FDF761BA1F211F2800D8014650
:1056B000404A106820F4784040EAC12010607047EA
:1056C00002463C48016821F4E02141EA02410160C0
:1056D0000122172101F062B802463648016821F420
:1056E000E00141EA025101600122132101F056B8A4
:1056F000304A103211686FF30F0101431160704797
:105700001EB504466846FBF78DFB009843F6095129
:10571000484304EB80106100B0FBF1F0254A401EC5
:105720001032C1B2106820F47C1040EA01401060D1
:105730001EBD2148016821F000510160016821F07F
:1057400080410160704710B5012200212D20FDF736
:10575000C9FA0121BDE810402D20FDF7E0B910B5D0
:10576000012200212D20FDF7BDFA0021BDE81040E7
:105770002D20FDF7D4B900000C00002000160140D8
:10578000041601400010014014060040344300207C
:105790006572726F72203A203738313620696F2077
:1057A0006D6170206D75737420696E69742E2E2E74
:1057B0002E0D0A00001C01401012014010B50122FC
:1057C00000212720FDF78EFA0021BDE81040272098
:1057D000FDF7A5B910B5012200212720FDF782FAB7
:1057E0000121BDE810402720FDF799B910B54FF60B
:1057F000FF74FFF7E3FF641EFDD24FF4BA70FFF7AA
:1058000077FFBDE81040E5E710B5FFF7A8FF0120DE
:10581000FFF71FFFFC4C00212078FDF780F9207A6C
:105820000021FDF77CF9FFF7C9FFFFF78CFF01228C
:105830001821F64800F0B2FF0020FFF70AFFF448F5
:10584000FFF75EFF4FF4BA70FFF752FFBDE810405C
:10585000C0E710B5FFF7B2FF0020FFF7FAFE002205
:105860000A21EA4800F09AFF0120FFF7F2FEE64C19
:1058700000212078FDF753F9207A0021FDF74FF938
:10588000BDE810406BE7E348C068002803D000681B
:10589000002111F07EBE7047DE48C068002802D0AB
:1058A000006811F087BE704770B5DA4D0446E868AD
:1058B00048B101F024F84FF4004101EB1030A04250
:1058C00003D8012070BD032070BDE8680021006886
:1058D00011F05FFE2103D04800F0F3FFE868006894
:1058E00011F068FE002070BD70B501F008F8C94DD8
:1058F0004FF4004101EB1031A869814215D9010331
:10590000C54800F0DEFF00244FF48076A8692969BD
:10591000000301EB042200EB0420314600F0E0FF1D
:10592000641C102CF2DB0020686170BD70B5B94CAE
:10593000E06820B120694FF0FF3550B901E0032045
:1059400070BD4FF4805001F054F9206108B100207F
:1059500070BD284670BD10B5AE4C2069002811D02E
:10596000E06800280ED00068002111F012FEFFF759
:10597000BBFFE068006811F01DFE206901F00CF922
:105980000020206110BD2DE9F047A24E0546894652
:10599000F0681446F0B300F0B2FF25F07841884279
:1059A00042D9C4B3B9F1000F3ED0F068B04600212F
:1059B000006811F0EEFD2F0BD8F818004FF4805A54
:1059C000C5F30B055646874202D008B1FFF78CFF9E
:1059D000C8F818700DB1C5F58056B44200D82646F7
:1059E000D8F81000374628443246494643F076FE40
:1059F000E8195646504506D3FFF776FFD8F8180049
:105A0000401CC8F818000025B944E41BE5D1D8F8BB
:105A10000C0001E006E007E0006811F0CBFD00207B
:105A2000BDE8F0870320FBE70120F9E72DE9F04707
:105A30007849C86878B188460068002111F0A9FD4E
:105A40004FF48056304601F0D4F8050005D000240C
:105A5000DFF8C8911BE00320E2E7D8F80C000068EB
:105A600011F0A8FD0620DBE709EB04373246294692
:105A70003846FEF737FB0020295CFF2903D0384663
:105A800000F036FF02E0401CB042F5DB641C00F081
:105A900036FFA0F50050B4EB103FE5D3284601F0E7
:105AA0007BF8D8F80C00006811F084FD0020B7E7FF
:105AB0002DE9F041574D0C460646E96871B17CB1BD
:105AC0000868002111F065FD00274FF48070052E55
:105AD00012D2DFE806F0070A0C0C0E00032062E485
:105AE000012060E442F2130001E000F008FF2060B2
:105AF00003E04FF48050FAE70127E868006811F0EE
:105B000059FD38464FE470B5424DE86808B10220AF
:105B100070BD042001F06DF8040009D00020206061
:105B20000121204611F025FD20B1204601F034F876
:105B3000062070BD0020EC6070BD032070472DE989
:105B4000F041344E05460F46F0691446E8B18168CD
:105B5000E9B1C968A9421CD9DCB1D7B1C06800213C
:105B600011F017FDF0692A198068C1688A4200D9CE
:105B70004C1B436A22463946284698470446F0693A
:105B8000C06811F017FD20460DE403200BE40B2044
:105B900009E4012007E41F4B30B4DB696BB19B685B
:105BA0006BB1DC6884420CD95AB151B193F82250E0
:105BB000AD0708D4042030BC70470320FBE70B205E
:105BC000F9E70120F7E78518A54200D9221A9B6A58
:105BD00030BC18472DE9F04106460E480F46C06913
